{
  "abi": [
    {
      "inputs": [],
      "stateMutability": "nonpayable",
      "type": "constructor"
    },
    {
      "inputs": [
        {
          "internalType": "uint256",
          "name": "",
          "type": "uint256"
        }
      ],
      "name": "deployed_factories",
      "outputs": [
        {
          "internalType": "address",
          "name": "",
          "type": "address"
        }
      ],
      "stateMutability": "view",
      "type": "function"
    },
    {
      "inputs": [],
      "name": "get_deployed_factories",
      "outputs": [
        {
          "internalType": "address[]",
          "name": "",
          "type": "address[]"
        }
      ],
      "stateMutability": "view",
      "type": "function"
    },
    {
      "inputs": [
        {
          "internalType": "string",
          "name": "email",
          "type": "string"
        },
        {
          "internalType": "string",
          "name": "password",
          "type": "string"
        }
      ],
      "name": "get_factory",
      "outputs": [
        {
          "internalType": "address",
          "name": "factory",
          "type": "address"
        }
      ],
      "stateMutability": "view",
      "type": "function"
    },
    {
      "inputs": [
        {
          "internalType": "string",
          "name": "email",
          "type": "string"
        },
        {
          "internalType": "string",
          "name": "password",
          "type": "string"
        }
      ],
      "name": "get_mobile",
      "outputs": [
        {
          "internalType": "string",
          "name": "mobile",
          "type": "string"
        }
      ],
      "stateMutability": "view",
      "type": "function"
    },
    {
      "inputs": [
        {
          "internalType": "string",
          "name": "email",
          "type": "string"
        },
        {
          "internalType": "string",
          "name": "password",
          "type": "string"
        }
      ],
      "name": "get_name",
      "outputs": [
        {
          "internalType": "string",
          "name": "name",
          "type": "string"
        }
      ],
      "stateMutability": "view",
      "type": "function"
    },
    {
      "inputs": [
        {
          "internalType": "string",
          "name": "email",
          "type": "string"
        },
        {
          "internalType": "string",
          "name": "password",
          "type": "string"
        }
      ],
      "name": "login",
      "outputs": [
        {
          "internalType": "int256",
          "name": "count",
          "type": "int256"
        }
      ],
      "stateMutability": "view",
      "type": "function"
    },
    {
      "inputs": [
        {
          "internalType": "string",
          "name": "email",
          "type": "string"
        },
        {
          "internalType": "string",
          "name": "password",
          "type": "string"
        },
        {
          "internalType": "string",
          "name": "name",
          "type": "string"
        },
        {
          "internalType": "string",
          "name": "phone",
          "type": "string"
        }
      ],
      "name": "registerUser",
      "outputs": [],
      "stateMutability": "nonpayable",
      "type": "function"
    }
  ],
  "evm": {
    "bytecode": {
      "linkReferences": {},
      "object": "608060405234801561001057600080fd5b5060405161001d9061007f565b604051809103906000f080158015610039573d6000803e3d6000fd5b50600160006101000a81548173ffffffffffffffffffffffffffffffffffffffff021916908373ffffffffffffffffffffffffffffffffffffffff16021790555061008c565b610a8f80612db383390190565b612d188061009b6000396000f3fe608060405234801561001057600080fd5b506004361061007d5760003560e01c80637ba013881161005b5780637ba013881461010057806393e54a5614610130578063974fdf801461014c578063f3cff1ff1461017c5761007d565b806337ebd6371461008257806358467dbc146100b2578063758e805d146100e2575b600080fd5b61009c600480360381019061009791906107b6565b6101ac565b6040516100a9919061086f565b60405180910390f35b6100cc60048036038101906100c791906107b6565b610254565b6040516100d991906108a3565b60405180910390f35b6100ea6102fc565b6040516100f7919061097c565b60405180910390f35b61011a600480360381019061011591906107b6565b61038a565b6040516101279190610a26565b60405180910390f35b61014a60048036038101906101459190610a48565b610437565b005b61016660048036038101906101619190610b55565b610563565b604051610173919061086f565b60405180910390f35b610196600480360381019061019191906107b6565b6105a2565b6040516101a39190610a26565b60405180910390f35b6000600160009054906101000a900473ffffffffffffffffffffffffffffffffffffffff1673ffffffffffffffffffffffffffffffffffffffff166337ebd63784846040518363ffffffff1660e01b815260040161020b929190610b82565b602060405180830381865afa158015610228573d6000803e3d6000fd5b505050506040513d601f19601f8201168201806040525081019061024c9190610be5565b905092915050565b6000600160009054906101000a900473ffffffffffffffffffffffffffffffffffffffff1673ffffffffffffffffffffffffffffffffffffffff166358467dbc84846040518363ffffffff1660e01b81526004016102b3929190610b82565b602060405180830381865afa1580156102d0573d6000803e3d6000fd5b505050506040513d601f19601f820116820180604052508101906102f49190610c3e565b905092915050565b6060600080548060200260200160405190810160405280929190818152602001828054801561038057602002820191906000526020600020905b8160009054906101000a900473ffffffffffffffffffffffffffffffffffffffff1673ffffffffffffffffffffffffffffffffffffffff1681526020019060010190808311610336575b5050505050905090565b6060600160009054906101000a900473ffffffffffffffffffffffffffffffffffffffff1673ffffffffffffffffffffffffffffffffffffffff16637ba0138884846040518363ffffffff1660e01b81526004016103e9929190610b82565b600060405180830381865afa158015610406573d6000803e3d6000fd5b505050506040513d6000823e3d601f19601f8201168201806040525081019061042f9190610cdb565b905092915050565b60006040516104459061064f565b604051809103906000f080158015610461573d6000803e3d6000fd5b509050600160009054906101000a900473ffffffffffffffffffffffffffffffffffffffff1673ffffffffffffffffffffffffffffffffffffffff16638657600786868686866040518663ffffffff1660e01b81526004016104c7959493929190610d24565b600060405180830381600087803b1580156104e157600080fd5b505af11580156104f5573d6000803e3d6000fd5b505050506000819080600181540180825580915050600190039060005260206000200160009091909190916101000a81548173ffffffffffffffffffffffffffffffffffffffff021916908373ffffffffffffffffffffffffffffffffffffffff1602179055505050505050565b6000818154811061057357600080fd5b906000526020600020016000915054906101000a900473ffffffffffffffffffffffffffffffffffffffff1681565b6060600160009054906101000a900473ffffffffffffffffffffffffffffffffffffffff1673ffffffffffffffffffffffffffffffffffffffff1663f3cff1ff84846040518363ffffffff1660e01b8152600401610601929190610b82565b600060405180830381865afa15801561061e573d6000803e3d6000fd5b505050506040513d6000823e3d601f19601f820116820180604052508101906106479190610cdb565b905092915050565b611f4f80610d9483390190565b6000604051905090565b600080fd5b600080fd5b600080fd5b600080fd5b6000601f19601f8301169050919050565b7f4e487b7100000000000000000000000000000000000000000000000000000000600052604160045260246000fd5b6106c38261067a565b810181811067ffffffffffffffff821117156106e2576106e161068b565b5b80604052505050565b60006106f561065c565b905061070182826106ba565b919050565b600067ffffffffffffffff8211156107215761072061068b565b5b61072a8261067a565b9050602081019050919050565b82818337600083830152505050565b600061075961075484610706565b6106eb565b90508281526020810184848401111561077557610774610675565b5b610780848285610737565b509392505050565b600082601f83011261079d5761079c610670565b5b81356107ad848260208601610746565b91505092915050565b600080604083850312156107cd576107cc610666565b5b600083013567ffffffffffffffff8111156107eb576107ea61066b565b5b6107f785828601610788565b925050602083013567ffffffffffffffff8111156108185761081761066b565b5b61082485828601610788565b9150509250929050565b600073ffffffffffffffffffffffffffffffffffffffff82169050919050565b60006108598261082e565b9050919050565b6108698161084e565b82525050565b60006020820190506108846000830184610860565b92915050565b6000819050919050565b61089d8161088a565b82525050565b60006020820190506108b86000830184610894565b92915050565b600081519050919050565b600082825260208201905092915050565b6000819050602082019050919050565b6108f38161084e565b82525050565b600061090583836108ea565b60208301905092915050565b6000602082019050919050565b6000610929826108be565b61093381856108c9565b935061093e836108da565b8060005b8381101561096f57815161095688826108f9565b975061096183610911565b925050600181019050610942565b5085935050505092915050565b60006020820190508181036000830152610996818461091e565b905092915050565b600081519050919050565b600082825260208201905092915050565b60005b838110156109d85780820151818401526020810190506109bd565b838111156109e7576000848401525b50505050565b60006109f88261099e565b610a0281856109a9565b9350610a128185602086016109ba565b610a1b8161067a565b840191505092915050565b60006020820190508181036000830152610a4081846109ed565b905092915050565b60008060008060808587031215610a6257610a61610666565b5b600085013567ffffffffffffffff811115610a8057610a7f61066b565b5b610a8c87828801610788565b945050602085013567ffffffffffffffff811115610aad57610aac61066b565b5b610ab987828801610788565b935050604085013567ffffffffffffffff811115610ada57610ad961066b565b5b610ae687828801610788565b925050606085013567ffffffffffffffff811115610b0757610b0661066b565b5b610b1387828801610788565b91505092959194509250565b6000819050919050565b610b3281610b1f565b8114610b3d57600080fd5b50565b600081359050610b4f81610b29565b92915050565b600060208284031215610b6b57610b6a610666565b5b6000610b7984828501610b40565b91505092915050565b60006040820190508181036000830152610b9c81856109ed565b90508181036020830152610bb081846109ed565b90509392505050565b610bc28161084e565b8114610bcd57600080fd5b50565b600081519050610bdf81610bb9565b92915050565b600060208284031215610bfb57610bfa610666565b5b6000610c0984828501610bd0565b91505092915050565b610c1b8161088a565b8114610c2657600080fd5b50565b600081519050610c3881610c12565b92915050565b600060208284031215610c5457610c53610666565b5b6000610c6284828501610c29565b91505092915050565b6000610c7e610c7984610706565b6106eb565b905082815260208101848484011115610c9a57610c99610675565b5b610ca58482856109ba565b509392505050565b600082601f830112610cc257610cc1610670565b5b8151610cd2848260208601610c6b565b91505092915050565b600060208284031215610cf157610cf0610666565b5b600082015167ffffffffffffffff811115610d0f57610d0e61066b565b5b610d1b84828501610cad565b91505092915050565b600060a0820190508181036000830152610d3e81886109ed565b90508181036020830152610d5281876109ed565b90508181036040830152610d6681866109ed565b90508181036060830152610d7a81856109ed565b9050610d896080830184610860565b969550505050505056fe608060405234801561001057600080fd5b50611f2f806100206000396000f3fe60806040523480156200001157600080fd5b5060043610620000465760003560e01c80634acb9d4f146200004b57806362cc497e146200006d578063980f2e6614620000a3575b600080fd5b62000055620000c3565b60405162000064919062000355565b60405180910390f35b6200008b6004803603810190620000859190620003c8565b62000153565b6040516200009a91906200040b565b60405180910390f35b620000c16004803603810190620000bb91906200058a565b62000193565b005b606060008054806020026020016040519081016040528092919081815260200182805480156200014957602002820191906000526020600020905b8160009054906101000a900473ffffffffffffffffffffffffffffffffffffffff1673ffffffffffffffffffffffffffffffffffffffff1681526020019060010190808311620000fe575b5050505050905090565b600081815481106200016457600080fd5b906000526020600020016000915054906101000a900473ffffffffffffffffffffffffffffffffffffffff1681565b6000858585858533604051620001a99062000245565b620001ba9695949392919062000713565b604051809103906000f080158015620001d7573d6000803e3d6000fd5b5090506000819080600181540180825580915050600190039060005260206000200160009091909190916101000a81548173ffffffffffffffffffffffffffffffffffffffff021916908373ffffffffffffffffffffffffffffffffffffffff160217905550505050505050565b611764806200079683390190565b600081519050919050565b600082825260208201905092915050565b6000819050602082019050919050565b600073ffffffffffffffffffffffffffffffffffffffff82169050919050565b6000620002ac826200027f565b9050919050565b620002be816200029f565b82525050565b6000620002d28383620002b3565b60208301905092915050565b6000602082019050919050565b6000620002f88262000253565b6200030481856200025e565b935062000311836200026f565b8060005b83811015620003485781516200032c8882620002c4565b97506200033983620002de565b92505060018101905062000315565b5085935050505092915050565b60006020820190508181036000830152620003718184620002eb565b905092915050565b6000604051905090565b600080fd5b600080fd5b6000819050919050565b620003a2816200038d565b8114620003ae57600080fd5b50565b600081359050620003c28162000397565b92915050565b600060208284031215620003e157620003e062000383565b5b6000620003f184828501620003b1565b91505092915050565b62000405816200029f565b82525050565b6000602082019050620004226000830184620003fa565b92915050565b600080fd5b600080fd5b6000601f19601f8301169050919050565b7f4e487b7100000000000000000000000000000000000000000000000000000000600052604160045260246000fd5b6200047d8262000432565b810181811067ffffffffffffffff821117156200049f576200049e62000443565b5b80604052505050565b6000620004b462000379565b9050620004c2828262000472565b919050565b600067ffffffffffffffff821115620004e557620004e462000443565b5b620004f08262000432565b9050602081019050919050565b82818337600083830152505050565b6000620005236200051d84620004c7565b620004a8565b9050828152602081018484840111156200054257620005416200042d565b5b6200054f848285620004fd565b509392505050565b600082601f8301126200056f576200056e62000428565b5b8135620005818482602086016200050c565b91505092915050565b600080600080600060a08688031215620005a957620005a862000383565b5b600086013567ffffffffffffffff811115620005ca57620005c962000388565b5b620005d88882890162000557565b955050602086013567ffffffffffffffff811115620005fc57620005fb62000388565b5b6200060a8882890162000557565b945050604086013567ffffffffffffffff8111156200062e576200062d62000388565b5b6200063c8882890162000557565b93505060606200064f88828901620003b1565b92505060806200066288828901620003b1565b9150509295509295909350565b600081519050919050565b600082825260208201905092915050565b60005b83811015620006ab5780820151818401526020810190506200068e565b83811115620006bb576000848401525b50505050565b6000620006ce826200066f565b620006da81856200067a565b9350620006ec8185602086016200068b565b620006f78162000432565b840191505092915050565b6200070d816200038d565b82525050565b600060c08201905081810360008301526200072f8189620006c1565b90508181036020830152620007458188620006c1565b905081810360408301526200075b8187620006c1565b90506200076c606083018662000702565b6200077b608083018562000702565b6200078a60a0830184620003fa565b97965050505050505056fe60806040523480156200001157600080fd5b5060405162001764380380620017648339818101604052810190620000379190620003ec565b806000806101000a81548173ffffffffffffffffffffffffffffffffffffffff021916908373ffffffffffffffffffffffffffffffffffffffff16021790555085600190805190602001906200008f929190620000ff565b508460029080519060200190620000a8929190620000ff565b508360039080519060200190620000c1929190620000ff565b5082600481905550816005819055506001600660006101000a81548160ff02191690831515021790555060006008819055505050505050506200054a565b8280546200010d9062000514565b90600052602060002090601f0160209004810192826200013157600085556200017d565b82601f106200014c57805160ff19168380011785556200017d565b828001600101855582156200017d579182015b828111156200017c5782518255916020019190600101906200015f565b5b5090506200018c919062000190565b5090565b5b80821115620001ab57600081600090555060010162000191565b5090565b6000604051905090565b600080fd5b600080fd5b600080fd5b600080fd5b6000601f19601f8301169050919050565b7f4e487b7100000000000000000000000000000000000000000000000000000000600052604160045260246000fd5b6200021882620001cd565b810181811067ffffffffffffffff821117156200023a5762000239620001de565b5b80604052505050565b60006200024f620001af565b90506200025d82826200020d565b919050565b600067ffffffffffffffff82111562000280576200027f620001de565b5b6200028b82620001cd565b9050602081019050919050565b60005b83811015620002b85780820151818401526020810190506200029b565b83811115620002c8576000848401525b50505050565b6000620002e5620002df8462000262565b62000243565b905082815260208101848484011115620003045762000303620001c8565b5b6200031184828562000298565b509392505050565b600082601f830112620003315762000330620001c3565b5b815162000343848260208601620002ce565b91505092915050565b6000819050919050565b62000361816200034c565b81146200036d57600080fd5b50565b600081519050620003818162000356565b92915050565b600073ffffffffffffffffffffffffffffffffffffffff82169050919050565b6000620003b48262000387565b9050919050565b620003c681620003a7565b8114620003d257600080fd5b50565b600081519050620003e681620003bb565b92915050565b60008060008060008060c087890312156200040c576200040b620001b9565b5b600087015167ffffffffffffffff8111156200042d576200042c620001be565b5b6200043b89828a0162000319565b965050602087015167ffffffffffffffff8111156200045f576200045e620001be565b5b6200046d89828a0162000319565b955050604087015167ffffffffffffffff811115620004915762000490620001be565b5b6200049f89828a0162000319565b9450506060620004b289828a0162000370565b9350506080620004c589828a0162000370565b92505060a0620004d889828a01620003d5565b9150509295509295509295565b7f4e487b7100000000000000000000000000000000000000000000000000000000600052602260045260246000fd5b600060028204905060018216806200052d57607f821691505b60208210811415620005445762000543620004e5565b5b50919050565b61120a806200055a6000396000f3fe6080604052600436106100e85760003560e01c806381e0ffae1161008a578063d7bb99ba11610059578063d7bb99ba146102db578063da59cf76146102e5578063f66c626314610310578063fba4d0751461033b576100e8565b806381e0ffae1461022e5780639263323f14610259578063b85dfb8014610282578063d52c74ec146102bf576100e8565b806322f3e2d4116100c657806322f3e2d41461016c578063604dfa38146101975780636427f777146101c257806381d12c58146101ed576100e8565b806302d05d3f146100ed57806306fdde03146101185780630c99d13014610143575b600080fd5b3480156100f957600080fd5b50610102610366565b60405161010f9190610c05565b60405180910390f35b34801561012457600080fd5b5061012d61038a565b60405161013a9190610cb9565b60405180910390f35b34801561014f57600080fd5b5061016a60048036038101906101659190610d25565b610418565b005b34801561017857600080fd5b50610181610565565b60405161018e9190610d6d565b60405180910390f35b3480156101a357600080fd5b506101ac610578565b6040516101b99190610d97565b60405180910390f35b3480156101ce57600080fd5b506101d761057e565b6040516101e49190610cb9565b60405180910390f35b3480156101f957600080fd5b50610214600480360381019061020f9190610d25565b61060c565b604051610225959493929190610db2565b60405180910390f35b34801561023a57600080fd5b50610243610707565b6040516102509190610d97565b60405180910390f35b34801561026557600080fd5b50610280600480360381019061027b9190610d25565b61070d565b005b34801561028e57600080fd5b506102a960048036038101906102a49190610e38565b61085b565b6040516102b69190610d6d565b60405180910390f35b6102d960048036038101906102d49190610f9a565b61087b565b005b6102e3610989565b005b3480156102f157600080fd5b506102fa610a80565b6040516103079190610d97565b60405180910390f35b34801561031c57600080fd5b50610325610a86565b6040516103329190610d97565b60405180910390f35b34801561034757600080fd5b50610350610a93565b60405161035d9190610cb9565b60405180910390f35b60008054906101000a900473ffffffffffffffffffffffffffffffffffffffff1681565b6002805461039790611038565b80601f01602080910402602001604051908101604052809291908181526020018280546103c390611038565b80156104105780601f106103e557610100808354040283529160200191610410565b820191906000526020600020905b8154815290600101906020018083116103f357829003601f168201915b505050505081565b60006009828154811061042e5761042d61106a565b5b90600052602060002090600502019050600760003373ffffffffffffffffffffffffffffffffffffffff1673ffffffffffffffffffffffffffffffffffffffff16815260200190815260200160002060009054906101000a900460ff1661049457600080fd5b8060040160003373ffffffffffffffffffffffffffffffffffffffff1673ffffffffffffffffffffffffffffffffffffffff16815260200190815260200160002060009054906101000a900460ff16156104ed57600080fd5b60018160040160003373ffffffffffffffffffffffffffffffffffffffff1673ffffffffffffffffffffffffffffffffffffffff16815260200190815260200160002060006101000a81548160ff02191690831515021790555080600301600081548092919061055c906110c8565b91905055505050565b600660009054906101000a900460ff1681565b60085481565b6003805461058b90611038565b80601f01602080910402602001604051908101604052809291908181526020018280546105b790611038565b80156106045780601f106105d957610100808354040283529160200191610604565b820191906000526020600020905b8154815290600101906020018083116105e757829003601f168201915b505050505081565b6009818154811061061c57600080fd5b906000526020600020906005020160009150905080600001805461063f90611038565b80601f016020809104026020016040519081016040528092919081815260200182805461066b90611038565b80156106b85780601f1061068d576101008083540402835291602001916106b8565b820191906000526020600020905b81548152906001019060200180831161069b57829003601f168201915b5050505050908060010154908060020160009054906101000a900473ffffffffffffffffffffffffffffffffffffffff16908060020160149054906101000a900460ff16908060030154905085565b60055481565b60008054906101000a900473ffffffffffffffffffffffffffffffffffffffff1673ffffffffffffffffffffffffffffffffffffffff163373ffffffffffffffffffffffffffffffffffffffff161461076557600080fd5b60006009828154811061077b5761077a61106a565b5b90600052602060002090600502019050600260085461079a9190611140565b8160030154116107a957600080fd5b8060020160149054906101000a900460ff16156107c557600080fd5b60008160020160009054906101000a900473ffffffffffffffffffffffffffffffffffffffff1690508073ffffffffffffffffffffffffffffffffffffffff166108fc83600101549081150290604051600060405180830381858888f19350505050158015610838573d6000803e3d6000fd5b5060018260020160146101000a81548160ff021916908315150217905550505050565b60076020528060005260406000206000915054906101000a900460ff1681565b60008054906101000a900473ffffffffffffffffffffffffffffffffffffffff1673ffffffffffffffffffffffffffffffffffffffff163373ffffffffffffffffffffffffffffffffffffffff16146108d357600080fd5b6000600960018160018154018082558091505003906000526020600020906005020190508381600001908051906020019061090f929190610b21565b50828160010181905550818160020160006101000a81548173ffffffffffffffffffffffffffffffffffffffff021916908373ffffffffffffffffffffffffffffffffffffffff16021790555060008160020160146101000a81548160ff0219169083151502179055506000816003018190555050505050565b60045434101561099857600080fd5b6001600760003373ffffffffffffffffffffffffffffffffffffffff1673ffffffffffffffffffffffffffffffffffffffff16815260200190815260200160002060009054906101000a900460ff166040516020016109f791906111b9565b604051602081830303815290604052511015610a7e5760086000815480929190610a20906110c8565b91905055506001600760003373ffffffffffffffffffffffffffffffffffffffff1673ffffffffffffffffffffffffffffffffffffffff16815260200190815260200160002060006101000a81548160ff0219169083151502179055505b565b60045481565b6000600980549050905090565b60018054610aa090611038565b80601f0160208091040260200160405190810160405280929190818152602001828054610acc90611038565b8015610b195780601f10610aee57610100808354040283529160200191610b19565b820191906000526020600020905b815481529060010190602001808311610afc57829003601f168201915b505050505081565b828054610b2d90611038565b90600052602060002090601f016020900481019282610b4f5760008555610b96565b82601f10610b6857805160ff1916838001178555610b96565b82800160010185558215610b96579182015b82811115610b95578251825591602001919060010190610b7a565b5b509050610ba39190610ba7565b5090565b5b80821115610bc0576000816000905550600101610ba8565b5090565b600073ffffffffffffffffffffffffffffffffffffffff82169050919050565b6000610bef82610bc4565b9050919050565b610bff81610be4565b82525050565b6000602082019050610c1a6000830184610bf6565b92915050565b600081519050919050565b600082825260208201905092915050565b60005b83811015610c5a578082015181840152602081019050610c3f565b83811115610c69576000848401525b50505050565b6000601f19601f8301169050919050565b6000610c8b82610c20565b610c958185610c2b565b9350610ca5818560208601610c3c565b610cae81610c6f565b840191505092915050565b60006020820190508181036000830152610cd38184610c80565b905092915050565b6000604051905090565b600080fd5b600080fd5b6000819050919050565b610d0281610cef565b8114610d0d57600080fd5b50565b600081359050610d1f81610cf9565b92915050565b600060208284031215610d3b57610d3a610ce5565b5b6000610d4984828501610d10565b91505092915050565b60008115159050919050565b610d6781610d52565b82525050565b6000602082019050610d826000830184610d5e565b92915050565b610d9181610cef565b82525050565b6000602082019050610dac6000830184610d88565b92915050565b600060a0820190508181036000830152610dcc8188610c80565b9050610ddb6020830187610d88565b610de86040830186610bf6565b610df56060830185610d5e565b610e026080830184610d88565b9695505050505050565b610e1581610be4565b8114610e2057600080fd5b50565b600081359050610e3281610e0c565b92915050565b600060208284031215610e4e57610e4d610ce5565b5b6000610e5c84828501610e23565b91505092915050565b600080fd5b600080fd5b7f4e487b7100000000000000000000000000000000000000000000000000000000600052604160045260246000fd5b610ea782610c6f565b810181811067ffffffffffffffff82111715610ec657610ec5610e6f565b5b80604052505050565b6000610ed9610cdb565b9050610ee58282610e9e565b919050565b600067ffffffffffffffff821115610f0557610f04610e6f565b5b610f0e82610c6f565b9050602081019050919050565b82818337600083830152505050565b6000610f3d610f3884610eea565b610ecf565b905082815260208101848484011115610f5957610f58610e6a565b5b610f64848285610f1b565b509392505050565b600082601f830112610f8157610f80610e65565b5b8135610f91848260208601610f2a565b91505092915050565b600080600060608486031215610fb357610fb2610ce5565b5b600084013567ffffffffffffffff811115610fd157610fd0610cea565b5b610fdd86828701610f6c565b9350506020610fee86828701610d10565b9250506040610fff86828701610e23565b9150509250925092565b7f4e487b7100000000000000000000000000000000000000000000000000000000600052602260045260246000fd5b6000600282049050600182168061105057607f821691505b6020821081141561106457611063611009565b5b50919050565b7f4e487b7100000000000000000000000000000000000000000000000000000000600052603260045260246000fd5b7f4e487b7100000000000000000000000000000000000000000000000000000000600052601160045260246000fd5b60006110d382610cef565b91507fffffffffffffffffffffffffffffffffffffffffffffffffffffffffffffffff82141561110657611105611099565b5b600182019050919050565b7f4e487b7100000000000000000000000000000000000000000000000000000000600052601260045260246000fd5b600061114b82610cef565b915061115683610cef565b92508261116657611165611111565b5b828204905092915050565b60008160f81b9050919050565b600061118982611171565b9050919050565b600061119b8261117e565b9050919050565b6111b36111ae82610d52565b611190565b82525050565b60006111c582846111a2565b6001820191508190509291505056fea2646970667358221220f36a2ff58a714d70acfae08596de62c638cb9452ab9791bf60b47da82ad4f41764736f6c634300080a0033a264697066735822122043b9575a987b496b446a7886907c33afa00ee0ab6f226b997896ee7da278ba6c64736f6c634300080a0033a2646970667358221220601d3532a4b533350beeb73f7abb3239886691549003a23a787e521b09fe9f3764736f6c634300080a0033608060405234801561001057600080fd5b50610a6f806100206000396000f3fe608060405234801561001057600080fd5b50600436106100575760003560e01c806337ebd6371461005c57806358467dbc1461008c5780637ba01388146100bc57806386576007146100ec578063f3cff1ff14610108575b600080fd5b610076600480360381019061007191906106bc565b610138565b6040516100839190610775565b60405180910390f35b6100a660048036038101906100a191906106bc565b61019a565b6040516100b391906107a9565b60405180910390f35b6100d660048036038101906100d191906106bc565b6101de565b6040516100e3919061084c565b60405180910390f35b6101066004803603810190610101919061089a565b6102b6565b005b610122600480360381019061011d91906106bc565b6103aa565b60405161012f919061084c565b60405180910390f35b60006101448383610482565b1561018f5760038360405161015991906109c1565b908152602001604051809103902060009054906101000a900473ffffffffffffffffffffffffffffffffffffffff169050610194565b600090505b92915050565b60006101a68383610482565b156101b457604590506101d8565b7fffffffffffffffffffffffffffffffffffffffffffffffffffffffffffffffbb90505b92915050565b60606101ea8383610482565b1561029d576002836040516101ff91906109c1565b9081526020016040518091039020805461021890610a07565b80601f016020809104026020016040519081016040528092919081815260200182805461024490610a07565b80156102915780601f1061026657610100808354040283529160200191610291565b820191906000526020600020905b81548152906001019060200180831161027457829003601f168201915b505050505090506102b0565b6040518060200160405280600081525090505b92915050565b83805190602001206000866040516102ce91906109c1565b908152602001604051809103902081905550826002866040516102f191906109c1565b908152602001604051809103902090805190602001906103129291906104bf565b508160018660405161032491906109c1565b908152602001604051809103902090805190602001906103459291906104bf565b508060038660405161035791906109c1565b908152602001604051809103902060006101000a81548173ffffffffffffffffffffffffffffffffffffffff021916908373ffffffffffffffffffffffffffffffffffffffff1602179055505050505050565b60606103b68383610482565b15610469576001836040516103cb91906109c1565b908152602001604051809103902080546103e490610a07565b80601f016020809104026020016040519081016040528092919081815260200182805461041090610a07565b801561045d5780601f106104325761010080835404028352916020019161045d565b820191906000526020600020905b81548152906001019060200180831161044057829003601f168201915b5050505050905061047c565b6040518060200160405280600081525090505b92915050565b60008060008460405161049591906109c1565b90815260200160405180910390205490506000838051906020012090508082149250505092915050565b8280546104cb90610a07565b90600052602060002090601f0160209004810192826104ed5760008555610534565b82601f1061050657805160ff1916838001178555610534565b82800160010185558215610534579182015b82811115610533578251825591602001919060010190610518565b5b5090506105419190610545565b5090565b5b8082111561055e576000816000905550600101610546565b5090565b6000604051905090565b600080fd5b600080fd5b600080fd5b600080fd5b6000601f19601f8301169050919050565b7f4e487b7100000000000000000000000000000000000000000000000000000000600052604160045260246000fd5b6105c982610580565b810181811067ffffffffffffffff821117156105e8576105e7610591565b5b80604052505050565b60006105fb610562565b905061060782826105c0565b919050565b600067ffffffffffffffff82111561062757610626610591565b5b61063082610580565b9050602081019050919050565b82818337600083830152505050565b600061065f61065a8461060c565b6105f1565b90508281526020810184848401111561067b5761067a61057b565b5b61068684828561063d565b509392505050565b600082601f8301126106a3576106a2610576565b5b81356106b384826020860161064c565b91505092915050565b600080604083850312156106d3576106d261056c565b5b600083013567ffffffffffffffff8111156106f1576106f0610571565b5b6106fd8582860161068e565b925050602083013567ffffffffffffffff81111561071e5761071d610571565b5b61072a8582860161068e565b9150509250929050565b600073ffffffffffffffffffffffffffffffffffffffff82169050919050565b600061075f82610734565b9050919050565b61076f81610754565b82525050565b600060208201905061078a6000830184610766565b92915050565b6000819050919050565b6107a381610790565b82525050565b60006020820190506107be600083018461079a565b92915050565b600081519050919050565b600082825260208201905092915050565b60005b838110156107fe5780820151818401526020810190506107e3565b8381111561080d576000848401525b50505050565b600061081e826107c4565b61082881856107cf565b93506108388185602086016107e0565b61084181610580565b840191505092915050565b600060208201905081810360008301526108668184610813565b905092915050565b61087781610754565b811461088257600080fd5b50565b6000813590506108948161086e565b92915050565b600080600080600060a086880312156108b6576108b561056c565b5b600086013567ffffffffffffffff8111156108d4576108d3610571565b5b6108e08882890161068e565b955050602086013567ffffffffffffffff81111561090157610900610571565b5b61090d8882890161068e565b945050604086013567ffffffffffffffff81111561092e5761092d610571565b5b61093a8882890161068e565b935050606086013567ffffffffffffffff81111561095b5761095a610571565b5b6109678882890161068e565b925050608061097888828901610885565b9150509295509295909350565b600081905092915050565b600061099b826107c4565b6109a58185610985565b93506109b58185602086016107e0565b80840191505092915050565b60006109cd8284610990565b915081905092915050565b7f4e487b7100000000000000000000000000000000000000000000000000000000600052602260045260246000fd5b60006002820490506001821680610a1f57607f821691505b60208210811415610a3357610a326109d8565b5b5091905056fea2646970667358221220f7e940676f783513e145755e314dc5c30fcd415d1c7672bbb994dc6a49e1178b64736f6c634300080a0033",
      "opcodes": "PUSH1 0x80 PUSH1 0x40 MSTORE CALLVALUE DUP1 ISZERO PUSH2 0x10 JUMPI PUSH1 0x0 DUP1 REVERT JUMPDEST POP PUSH1 0x40 MLOAD PUSH2 0x1D SWAP1 PUSH2 0x7F JUMP JUMPDEST PUSH1 0x40 MLOAD DUP1 SWAP2 SUB SWAP1 PUSH1 0x0 CREATE DUP1 ISZERO DUP1 ISZERO PUSH2 0x39 JUMPI RETURNDATASIZE PUSH1 0x0 DUP1 RETURNDATACOPY RETURNDATASIZE PUSH1 0x0 REVERT JUMPDEST POP PUSH1 0x1 PUSH1 0x0 PUSH2 0x100 EXP DUP2 SLOAD DUP2 PUSH20 0xFFFFFFFFFFFFFFFFFFFFFFFFFFFFFFFFFFFFFFFF MUL NOT AND SWAP1 DUP4 PUSH20 0xFFFFFFFFFFFFFFFFFFFFFFFFFFFFFFFFFFFFFFFF AND MUL OR SWAP1 SSTORE POP PUSH2 0x8C JUMP JUMPDEST PUSH2 0xA8F DUP1 PUSH2 0x2DB3 DUP4 CODECOPY ADD SWAP1 JUMP JUMPDEST PUSH2 0x2D18 DUP1 PUSH2 0x9B PUSH1 0x0 CODECOPY PUSH1 0x0 RETURN INVALID PUSH1 0x80 PUSH1 0x40 MSTORE CALLVALUE DUP1 ISZERO PUSH2 0x10 JUMPI PUSH1 0x0 DUP1 REVERT JUMPDEST POP PUSH1 0x4 CALLDATASIZE LT PUSH2 0x7D JUMPI PUSH1 0x0 CALLDATALOAD PUSH1 0xE0 SHR DUP1 PUSH4 0x7BA01388 GT PUSH2 0x5B JUMPI DUP1 PUSH4 0x7BA01388 EQ PUSH2 0x100 JUMPI DUP1 PUSH4 0x93E54A56 EQ PUSH2 0x130 JUMPI DUP1 PUSH4 0x974FDF80 EQ PUSH2 0x14C JUMPI DUP1 PUSH4 0xF3CFF1FF EQ PUSH2 0x17C JUMPI PUSH2 0x7D JUMP JUMPDEST DUP1 PUSH4 0x37EBD637 EQ PUSH2 0x82 JUMPI DUP1 PUSH4 0x58467DBC EQ PUSH2 0xB2 JUMPI DUP1 PUSH4 0x758E805D EQ PUSH2 0xE2 JUMPI JUMPDEST PUSH1 0x0 DUP1 REVERT JUMPDEST PUSH2 0x9C PUSH1 0x4 DUP1 CALLDATASIZE SUB DUP2 ADD SWAP1 PUSH2 0x97 SWAP2 SWAP1 PUSH2 0x7B6 JUMP JUMPDEST PUSH2 0x1AC JUMP JUMPDEST PUSH1 0x40 MLOAD PUSH2 0xA9 SWAP2 SWAP1 PUSH2 0x86F JUMP JUMPDEST PUSH1 0x40 MLOAD DUP1 SWAP2 SUB SWAP1 RETURN JUMPDEST PUSH2 0xCC PUSH1 0x4 DUP1 CALLDATASIZE SUB DUP2 ADD SWAP1 PUSH2 0xC7 SWAP2 SWAP1 PUSH2 0x7B6 JUMP JUMPDEST PUSH2 0x254 JUMP JUMPDEST PUSH1 0x40 MLOAD PUSH2 0xD9 SWAP2 SWAP1 PUSH2 0x8A3 JUMP JUMPDEST PUSH1 0x40 MLOAD DUP1 SWAP2 SUB SWAP1 RETURN JUMPDEST PUSH2 0xEA PUSH2 0x2FC JUMP JUMPDEST PUSH1 0x40 MLOAD PUSH2 0xF7 SWAP2 SWAP1 PUSH2 0x97C JUMP JUMPDEST PUSH1 0x40 MLOAD DUP1 SWAP2 SUB SWAP1 RETURN JUMPDEST PUSH2 0x11A PUSH1 0x4 DUP1 CALLDATASIZE SUB DUP2 ADD SWAP1 PUSH2 0x115 SWAP2 SWAP1 PUSH2 0x7B6 JUMP JUMPDEST PUSH2 0x38A JUMP JUMPDEST PUSH1 0x40 MLOAD PUSH2 0x127 SWAP2 SWAP1 PUSH2 0xA26 JUMP JUMPDEST PUSH1 0x40 MLOAD DUP1 SWAP2 SUB SWAP1 RETURN JUMPDEST PUSH2 0x14A PUSH1 0x4 DUP1 CALLDATASIZE SUB DUP2 ADD SWAP1 PUSH2 0x145 SWAP2 SWAP1 PUSH2 0xA48 JUMP JUMPDEST PUSH2 0x437 JUMP JUMPDEST STOP JUMPDEST PUSH2 0x166 PUSH1 0x4 DUP1 CALLDATASIZE SUB DUP2 ADD SWAP1 PUSH2 0x161 SWAP2 SWAP1 PUSH2 0xB55 JUMP JUMPDEST PUSH2 0x563 JUMP JUMPDEST PUSH1 0x40 MLOAD PUSH2 0x173 SWAP2 SWAP1 PUSH2 0x86F JUMP JUMPDEST PUSH1 0x40 MLOAD DUP1 SWAP2 SUB SWAP1 RETURN JUMPDEST PUSH2 0x196 PUSH1 0x4 DUP1 CALLDATASIZE SUB DUP2 ADD SWAP1 PUSH2 0x191 SWAP2 SWAP1 PUSH2 0x7B6 JUMP JUMPDEST PUSH2 0x5A2 JUMP JUMPDEST PUSH1 0x40 MLOAD PUSH2 0x1A3 SWAP2 SWAP1 PUSH2 0xA26 JUMP JUMPDEST PUSH1 0x40 MLOAD DUP1 SWAP2 SUB SWAP1 RETURN JUMPDEST PUSH1 0x0 PUSH1 0x1 PUSH1 0x0 SWAP1 SLOAD SWAP1 PUSH2 0x100 EXP SWAP1 DIV PUSH20 0xFFFFFFFFFFFFFFFFFFFFFFFFFFFFFFFFFFFFFFFF AND PUSH20 0xFFFFFFFFFFFFFFFFFFFFFFFFFFFFFFFFFFFFFFFF AND PUSH4 0x37EBD637 DUP5 DUP5 PUSH1 0x40 MLOAD DUP4 PUSH4 0xFFFFFFFF AND PUSH1 0xE0 SHL DUP2 MSTORE PUSH1 0x4 ADD PUSH2 0x20B SWAP3 SWAP2 SWAP1 PUSH2 0xB82 JUMP JUMPDEST PUSH1 0x20 PUSH1 0x40 MLOAD DUP1 DUP4 SUB DUP2 DUP7 GAS STATICCALL ISZERO DUP1 ISZERO PUSH2 0x228 JUMPI RETURNDATASIZE PUSH1 0x0 DUP1 RETURNDATACOPY RETURNDATASIZE PUSH1 0x0 REVERT JUMPDEST POP POP POP POP PUSH1 0x40 MLOAD RETURNDATASIZE PUSH1 0x1F NOT PUSH1 0x1F DUP3 ADD AND DUP3 ADD DUP1 PUSH1 0x40 MSTORE POP DUP2 ADD SWAP1 PUSH2 0x24C SWAP2 SWAP1 PUSH2 0xBE5 JUMP JUMPDEST SWAP1 POP SWAP3 SWAP2 POP POP JUMP JUMPDEST PUSH1 0x0 PUSH1 0x1 PUSH1 0x0 SWAP1 SLOAD SWAP1 PUSH2 0x100 EXP SWAP1 DIV PUSH20 0xFFFFFFFFFFFFFFFFFFFFFFFFFFFFFFFFFFFFFFFF AND PUSH20 0xFFFFFFFFFFFFFFFFFFFFFFFFFFFFFFFFFFFFFFFF AND PUSH4 0x58467DBC DUP5 DUP5 PUSH1 0x40 MLOAD DUP4 PUSH4 0xFFFFFFFF AND PUSH1 0xE0 SHL DUP2 MSTORE PUSH1 0x4 ADD PUSH2 0x2B3 SWAP3 SWAP2 SWAP1 PUSH2 0xB82 JUMP JUMPDEST PUSH1 0x20 PUSH1 0x40 MLOAD DUP1 DUP4 SUB DUP2 DUP7 GAS STATICCALL ISZERO DUP1 ISZERO PUSH2 0x2D0 JUMPI RETURNDATASIZE PUSH1 0x0 DUP1 RETURNDATACOPY RETURNDATASIZE PUSH1 0x0 REVERT JUMPDEST POP POP POP POP PUSH1 0x40 MLOAD RETURNDATASIZE PUSH1 0x1F NOT PUSH1 0x1F DUP3 ADD AND DUP3 ADD DUP1 PUSH1 0x40 MSTORE POP DUP2 ADD SWAP1 PUSH2 0x2F4 SWAP2 SWAP1 PUSH2 0xC3E JUMP JUMPDEST SWAP1 POP SWAP3 SWAP2 POP POP JUMP JUMPDEST PUSH1 0x60 PUSH1 0x0 DUP1 SLOAD DUP1 PUSH1 0x20 MUL PUSH1 0x20 ADD PUSH1 0x40 MLOAD SWAP1 DUP2 ADD PUSH1 0x40 MSTORE DUP1 SWAP3 SWAP2 SWAP1 DUP2 DUP2 MSTORE PUSH1 0x20 ADD DUP3 DUP1 SLOAD DUP1 ISZERO PUSH2 0x380 JUMPI PUSH1 0x20 MUL DUP3 ADD SWAP2 SWAP1 PUSH1 0x0 MSTORE PUSH1 0x20 PUSH1 0x0 KECCAK256 SWAP1 JUMPDEST DUP2 PUSH1 0x0 SWAP1 SLOAD SWAP1 PUSH2 0x100 EXP SWAP1 DIV PUSH20 0xFFFFFFFFFFFFFFFFFFFFFFFFFFFFFFFFFFFFFFFF AND PUSH20 0xFFFFFFFFFFFFFFFFFFFFFFFFFFFFFFFFFFFFFFFF AND DUP2 MSTORE PUSH1 0x20 ADD SWAP1 PUSH1 0x1 ADD SWAP1 DUP1 DUP4 GT PUSH2 0x336 JUMPI JUMPDEST POP POP POP POP POP SWAP1 POP SWAP1 JUMP JUMPDEST PUSH1 0x60 PUSH1 0x1 PUSH1 0x0 SWAP1 SLOAD SWAP1 PUSH2 0x100 EXP SWAP1 DIV PUSH20 0xFFFFFFFFFFFFFFFFFFFFFFFFFFFFFFFFFFFFFFFF AND PUSH20 0xFFFFFFFFFFFFFFFFFFFFFFFFFFFFFFFFFFFFFFFF AND PUSH4 0x7BA01388 DUP5 DUP5 PUSH1 0x40 MLOAD DUP4 PUSH4 0xFFFFFFFF AND PUSH1 0xE0 SHL DUP2 MSTORE PUSH1 0x4 ADD PUSH2 0x3E9 SWAP3 SWAP2 SWAP1 PUSH2 0xB82 JUMP JUMPDEST PUSH1 0x0 PUSH1 0x40 MLOAD DUP1 DUP4 SUB DUP2 DUP7 GAS STATICCALL ISZERO DUP1 ISZERO PUSH2 0x406 JUMPI RETURNDATASIZE PUSH1 0x0 DUP1 RETURNDATACOPY RETURNDATASIZE PUSH1 0x0 REVERT JUMPDEST POP POP POP POP PUSH1 0x40 MLOAD RETURNDATASIZE PUSH1 0x0 DUP3 RETURNDATACOPY RETURNDATASIZE PUSH1 0x1F NOT PUSH1 0x1F DUP3 ADD AND DUP3 ADD DUP1 PUSH1 0x40 MSTORE POP DUP2 ADD SWAP1 PUSH2 0x42F SWAP2 SWAP1 PUSH2 0xCDB JUMP JUMPDEST SWAP1 POP SWAP3 SWAP2 POP POP JUMP JUMPDEST PUSH1 0x0 PUSH1 0x40 MLOAD PUSH2 0x445 SWAP1 PUSH2 0x64F JUMP JUMPDEST PUSH1 0x40 MLOAD DUP1 SWAP2 SUB SWAP1 PUSH1 0x0 CREATE DUP1 ISZERO DUP1 ISZERO PUSH2 0x461 JUMPI RETURNDATASIZE PUSH1 0x0 DUP1 RETURNDATACOPY RETURNDATASIZE PUSH1 0x0 REVERT JUMPDEST POP SWAP1 POP PUSH1 0x1 PUSH1 0x0 SWAP1 SLOAD SWAP1 PUSH2 0x100 EXP SWAP1 DIV PUSH20 0xFFFFFFFFFFFFFFFFFFFFFFFFFFFFFFFFFFFFFFFF AND PUSH20 0xFFFFFFFFFFFFFFFFFFFFFFFFFFFFFFFFFFFFFFFF AND PUSH4 0x86576007 DUP7 DUP7 DUP7 DUP7 DUP7 PUSH1 0x40 MLOAD DUP7 PUSH4 0xFFFFFFFF AND PUSH1 0xE0 SHL DUP2 MSTORE PUSH1 0x4 ADD PUSH2 0x4C7 SWAP6 SWAP5 SWAP4 SWAP3 SWAP2 SWAP1 PUSH2 0xD24 JUMP JUMPDEST PUSH1 0x0 PUSH1 0x40 MLOAD DUP1 DUP4 SUB DUP2 PUSH1 0x0 DUP8 DUP1 EXTCODESIZE ISZERO DUP1 ISZERO PUSH2 0x4E1 JUMPI PUSH1 0x0 DUP1 REVERT JUMPDEST POP GAS CALL ISZERO DUP1 ISZERO PUSH2 0x4F5 JUMPI RETURNDATASIZE PUSH1 0x0 DUP1 RETURNDATACOPY RETURNDATASIZE PUSH1 0x0 REVERT JUMPDEST POP POP POP POP PUSH1 0x0 DUP2 SWAP1 DUP1 PUSH1 0x1 DUP2 SLOAD ADD DUP1 DUP3 SSTORE DUP1 SWAP2 POP POP PUSH1 0x1 SWAP1 SUB SWAP1 PUSH1 0x0 MSTORE PUSH1 0x20 PUSH1 0x0 KECCAK256 ADD PUSH1 0x0 SWAP1 SWAP2 SWAP1 SWAP2 SWAP1 SWAP2 PUSH2 0x100 EXP DUP2 SLOAD DUP2 PUSH20 0xFFFFFFFFFFFFFFFFFFFFFFFFFFFFFFFFFFFFFFFF MUL NOT AND SWAP1 DUP4 PUSH20 0xFFFFFFFFFFFFFFFFFFFFFFFFFFFFFFFFFFFFFFFF AND MUL OR SWAP1 SSTORE POP POP POP POP POP POP JUMP JUMPDEST PUSH1 0x0 DUP2 DUP2 SLOAD DUP2 LT PUSH2 0x573 JUMPI PUSH1 0x0 DUP1 REVERT JUMPDEST SWAP1 PUSH1 0x0 MSTORE PUSH1 0x20 PUSH1 0x0 KECCAK256 ADD PUSH1 0x0 SWAP2 POP SLOAD SWAP1 PUSH2 0x100 EXP SWAP1 DIV PUSH20 0xFFFFFFFFFFFFFFFFFFFFFFFFFFFFFFFFFFFFFFFF AND DUP2 JUMP JUMPDEST PUSH1 0x60 PUSH1 0x1 PUSH1 0x0 SWAP1 SLOAD SWAP1 PUSH2 0x100 EXP SWAP1 DIV PUSH20 0xFFFFFFFFFFFFFFFFFFFFFFFFFFFFFFFFFFFFFFFF AND PUSH20 0xFFFFFFFFFFFFFFFFFFFFFFFFFFFFFFFFFFFFFFFF AND PUSH4 0xF3CFF1FF DUP5 DUP5 PUSH1 0x40 MLOAD DUP4 PUSH4 0xFFFFFFFF AND PUSH1 0xE0 SHL DUP2 MSTORE PUSH1 0x4 ADD PUSH2 0x601 SWAP3 SWAP2 SWAP1 PUSH2 0xB82 JUMP JUMPDEST PUSH1 0x0 PUSH1 0x40 MLOAD DUP1 DUP4 SUB DUP2 DUP7 GAS STATICCALL ISZERO DUP1 ISZERO PUSH2 0x61E JUMPI RETURNDATASIZE PUSH1 0x0 DUP1 RETURNDATACOPY RETURNDATASIZE PUSH1 0x0 REVERT JUMPDEST POP POP POP POP PUSH1 0x40 MLOAD RETURNDATASIZE PUSH1 0x0 DUP3 RETURNDATACOPY RETURNDATASIZE PUSH1 0x1F NOT PUSH1 0x1F DUP3 ADD AND DUP3 ADD DUP1 PUSH1 0x40 MSTORE POP DUP2 ADD SWAP1 PUSH2 0x647 SWAP2 SWAP1 PUSH2 0xCDB JUMP JUMPDEST SWAP1 POP SWAP3 SWAP2 POP POP JUMP JUMPDEST PUSH2 0x1F4F DUP1 PUSH2 0xD94 DUP4 CODECOPY ADD SWAP1 JUMP JUMPDEST PUSH1 0x0 PUSH1 0x40 MLOAD SWAP1 POP SWAP1 JUMP JUMPDEST PUSH1 0x0 DUP1 REVERT JUMPDEST PUSH1 0x0 DUP1 REVERT JUMPDEST PUSH1 0x0 DUP1 REVERT JUMPDEST PUSH1 0x0 DUP1 REVERT JUMPDEST PUSH1 0x0 PUSH1 0x1F NOT PUSH1 0x1F DUP4 ADD AND SWAP1 POP SWAP2 SWAP1 POP JUMP JUMPDEST PUSH32 0x4E487B7100000000000000000000000000000000000000000000000000000000 PUSH1 0x0 MSTORE PUSH1 0x41 PUSH1 0x4 MSTORE PUSH1 0x24 PUSH1 0x0 REVERT JUMPDEST PUSH2 0x6C3 DUP3 PUSH2 0x67A JUMP JUMPDEST DUP2 ADD DUP2 DUP2 LT PUSH8 0xFFFFFFFFFFFFFFFF DUP3 GT OR ISZERO PUSH2 0x6E2 JUMPI PUSH2 0x6E1 PUSH2 0x68B JUMP JUMPDEST JUMPDEST DUP1 PUSH1 0x40 MSTORE POP POP POP JUMP JUMPDEST PUSH1 0x0 PUSH2 0x6F5 PUSH2 0x65C JUMP JUMPDEST SWAP1 POP PUSH2 0x701 DUP3 DUP3 PUSH2 0x6BA JUMP JUMPDEST SWAP2 SWAP1 POP JUMP JUMPDEST PUSH1 0x0 PUSH8 0xFFFFFFFFFFFFFFFF DUP3 GT ISZERO PUSH2 0x721 JUMPI PUSH2 0x720 PUSH2 0x68B JUMP JUMPDEST JUMPDEST PUSH2 0x72A DUP3 PUSH2 0x67A JUMP JUMPDEST SWAP1 POP PUSH1 0x20 DUP2 ADD SWAP1 POP SWAP2 SWAP1 POP JUMP JUMPDEST DUP3 DUP2 DUP4 CALLDATACOPY PUSH1 0x0 DUP4 DUP4 ADD MSTORE POP POP POP JUMP JUMPDEST PUSH1 0x0 PUSH2 0x759 PUSH2 0x754 DUP5 PUSH2 0x706 JUMP JUMPDEST PUSH2 0x6EB JUMP JUMPDEST SWAP1 POP DUP3 DUP2 MSTORE PUSH1 0x20 DUP2 ADD DUP5 DUP5 DUP5 ADD GT ISZERO PUSH2 0x775 JUMPI PUSH2 0x774 PUSH2 0x675 JUMP JUMPDEST JUMPDEST PUSH2 0x780 DUP5 DUP3 DUP6 PUSH2 0x737 JUMP JUMPDEST POP SWAP4 SWAP3 POP POP POP JUMP JUMPDEST PUSH1 0x0 DUP3 PUSH1 0x1F DUP4 ADD SLT PUSH2 0x79D JUMPI PUSH2 0x79C PUSH2 0x670 JUMP JUMPDEST JUMPDEST DUP2 CALLDATALOAD PUSH2 0x7AD DUP5 DUP3 PUSH1 0x20 DUP7 ADD PUSH2 0x746 JUMP JUMPDEST SWAP2 POP POP SWAP3 SWAP2 POP POP JUMP JUMPDEST PUSH1 0x0 DUP1 PUSH1 0x40 DUP4 DUP6 SUB SLT ISZERO PUSH2 0x7CD JUMPI PUSH2 0x7CC PUSH2 0x666 JUMP JUMPDEST JUMPDEST PUSH1 0x0 DUP4 ADD CALLDATALOAD PUSH8 0xFFFFFFFFFFFFFFFF DUP2 GT ISZERO PUSH2 0x7EB JUMPI PUSH2 0x7EA PUSH2 0x66B JUMP JUMPDEST JUMPDEST PUSH2 0x7F7 DUP6 DUP3 DUP7 ADD PUSH2 0x788 JUMP JUMPDEST SWAP3 POP POP PUSH1 0x20 DUP4 ADD CALLDATALOAD PUSH8 0xFFFFFFFFFFFFFFFF DUP2 GT ISZERO PUSH2 0x818 JUMPI PUSH2 0x817 PUSH2 0x66B JUMP JUMPDEST JUMPDEST PUSH2 0x824 DUP6 DUP3 DUP7 ADD PUSH2 0x788 JUMP JUMPDEST SWAP2 POP POP SWAP3 POP SWAP3 SWAP1 POP JUMP JUMPDEST PUSH1 0x0 PUSH20 0xFFFFFFFFFFFFFFFFFFFFFFFFFFFFFFFFFFFFFFFF DUP3 AND SWAP1 POP SWAP2 SWAP1 POP JUMP JUMPDEST PUSH1 0x0 PUSH2 0x859 DUP3 PUSH2 0x82E JUMP JUMPDEST SWAP1 POP SWAP2 SWAP1 POP JUMP JUMPDEST PUSH2 0x869 DUP2 PUSH2 0x84E JUMP JUMPDEST DUP3 MSTORE POP POP JUMP JUMPDEST PUSH1 0x0 PUSH1 0x20 DUP3 ADD SWAP1 POP PUSH2 0x884 PUSH1 0x0 DUP4 ADD DUP5 PUSH2 0x860 JUMP JUMPDEST SWAP3 SWAP2 POP POP JUMP JUMPDEST PUSH1 0x0 DUP2 SWAP1 POP SWAP2 SWAP1 POP JUMP JUMPDEST PUSH2 0x89D DUP2 PUSH2 0x88A JUMP JUMPDEST DUP3 MSTORE POP POP JUMP JUMPDEST PUSH1 0x0 PUSH1 0x20 DUP3 ADD SWAP1 POP PUSH2 0x8B8 PUSH1 0x0 DUP4 ADD DUP5 PUSH2 0x894 JUMP JUMPDEST SWAP3 SWAP2 POP POP JUMP JUMPDEST PUSH1 0x0 DUP2 MLOAD SWAP1 POP SWAP2 SWAP1 POP JUMP JUMPDEST PUSH1 0x0 DUP3 DUP3 MSTORE PUSH1 0x20 DUP3 ADD SWAP1 POP SWAP3 SWAP2 POP POP JUMP JUMPDEST PUSH1 0x0 DUP2 SWAP1 POP PUSH1 0x20 DUP3 ADD SWAP1 POP SWAP2 SWAP1 POP JUMP JUMPDEST PUSH2 0x8F3 DUP2 PUSH2 0x84E JUMP JUMPDEST DUP3 MSTORE POP POP JUMP JUMPDEST PUSH1 0x0 PUSH2 0x905 DUP4 DUP4 PUSH2 0x8EA JUMP JUMPDEST PUSH1 0x20 DUP4 ADD SWAP1 POP SWAP3 SWAP2 POP POP JUMP JUMPDEST PUSH1 0x0 PUSH1 0x20 DUP3 ADD SWAP1 POP SWAP2 SWAP1 POP JUMP JUMPDEST PUSH1 0x0 PUSH2 0x929 DUP3 PUSH2 0x8BE JUMP JUMPDEST PUSH2 0x933 DUP2 DUP6 PUSH2 0x8C9 JUMP JUMPDEST SWAP4 POP PUSH2 0x93E DUP4 PUSH2 0x8DA JUMP JUMPDEST DUP1 PUSH1 0x0 JUMPDEST DUP4 DUP2 LT ISZERO PUSH2 0x96F JUMPI DUP2 MLOAD PUSH2 0x956 DUP9 DUP3 PUSH2 0x8F9 JUMP JUMPDEST SWAP8 POP PUSH2 0x961 DUP4 PUSH2 0x911 JUMP JUMPDEST SWAP3 POP POP PUSH1 0x1 DUP2 ADD SWAP1 POP PUSH2 0x942 JUMP JUMPDEST POP DUP6 SWAP4 POP POP POP POP SWAP3 SWAP2 POP POP JUMP JUMPDEST PUSH1 0x0 PUSH1 0x20 DUP3 ADD SWAP1 POP DUP2 DUP2 SUB PUSH1 0x0 DUP4 ADD MSTORE PUSH2 0x996 DUP2 DUP5 PUSH2 0x91E JUMP JUMPDEST SWAP1 POP SWAP3 SWAP2 POP POP JUMP JUMPDEST PUSH1 0x0 DUP2 MLOAD SWAP1 POP SWAP2 SWAP1 POP JUMP JUMPDEST PUSH1 0x0 DUP3 DUP3 MSTORE PUSH1 0x20 DUP3 ADD SWAP1 POP SWAP3 SWAP2 POP POP JUMP JUMPDEST PUSH1 0x0 JUMPDEST DUP4 DUP2 LT ISZERO PUSH2 0x9D8 JUMPI DUP1 DUP3 ADD MLOAD DUP2 DUP5 ADD MSTORE PUSH1 0x20 DUP2 ADD SWAP1 POP PUSH2 0x9BD JUMP JUMPDEST DUP4 DUP2 GT ISZERO PUSH2 0x9E7 JUMPI PUSH1 0x0 DUP5 DUP5 ADD MSTORE JUMPDEST POP POP POP POP JUMP JUMPDEST PUSH1 0x0 PUSH2 0x9F8 DUP3 PUSH2 0x99E JUMP JUMPDEST PUSH2 0xA02 DUP2 DUP6 PUSH2 0x9A9 JUMP JUMPDEST SWAP4 POP PUSH2 0xA12 DUP2 DUP6 PUSH1 0x20 DUP7 ADD PUSH2 0x9BA JUMP JUMPDEST PUSH2 0xA1B DUP2 PUSH2 0x67A JUMP JUMPDEST DUP5 ADD SWAP2 POP POP SWAP3 SWAP2 POP POP JUMP JUMPDEST PUSH1 0x0 PUSH1 0x20 DUP3 ADD SWAP1 POP DUP2 DUP2 SUB PUSH1 0x0 DUP4 ADD MSTORE PUSH2 0xA40 DUP2 DUP5 PUSH2 0x9ED JUMP JUMPDEST SWAP1 POP SWAP3 SWAP2 POP POP JUMP JUMPDEST PUSH1 0x0 DUP1 PUSH1 0x0 DUP1 PUSH1 0x80 DUP6 DUP8 SUB SLT ISZERO PUSH2 0xA62 JUMPI PUSH2 0xA61 PUSH2 0x666 JUMP JUMPDEST JUMPDEST PUSH1 0x0 DUP6 ADD CALLDATALOAD PUSH8 0xFFFFFFFFFFFFFFFF DUP2 GT ISZERO PUSH2 0xA80 JUMPI PUSH2 0xA7F PUSH2 0x66B JUMP JUMPDEST JUMPDEST PUSH2 0xA8C DUP8 DUP3 DUP9 ADD PUSH2 0x788 JUMP JUMPDEST SWAP5 POP POP PUSH1 0x20 DUP6 ADD CALLDATALOAD PUSH8 0xFFFFFFFFFFFFFFFF DUP2 GT ISZERO PUSH2 0xAAD JUMPI PUSH2 0xAAC PUSH2 0x66B JUMP JUMPDEST JUMPDEST PUSH2 0xAB9 DUP8 DUP3 DUP9 ADD PUSH2 0x788 JUMP JUMPDEST SWAP4 POP POP PUSH1 0x40 DUP6 ADD CALLDATALOAD PUSH8 0xFFFFFFFFFFFFFFFF DUP2 GT ISZERO PUSH2 0xADA JUMPI PUSH2 0xAD9 PUSH2 0x66B JUMP JUMPDEST JUMPDEST PUSH2 0xAE6 DUP8 DUP3 DUP9 ADD PUSH2 0x788 JUMP JUMPDEST SWAP3 POP POP PUSH1 0x60 DUP6 ADD CALLDATALOAD PUSH8 0xFFFFFFFFFFFFFFFF DUP2 GT ISZERO PUSH2 0xB07 JUMPI PUSH2 0xB06 PUSH2 0x66B JUMP JUMPDEST JUMPDEST PUSH2 0xB13 DUP8 DUP3 DUP9 ADD PUSH2 0x788 JUMP JUMPDEST SWAP2 POP POP SWAP3 SWAP6 SWAP2 SWAP5 POP SWAP3 POP JUMP JUMPDEST PUSH1 0x0 DUP2 SWAP1 POP SWAP2 SWAP1 POP JUMP JUMPDEST PUSH2 0xB32 DUP2 PUSH2 0xB1F JUMP JUMPDEST DUP2 EQ PUSH2 0xB3D JUMPI PUSH1 0x0 DUP1 REVERT JUMPDEST POP JUMP JUMPDEST PUSH1 0x0 DUP2 CALLDATALOAD SWAP1 POP PUSH2 0xB4F DUP2 PUSH2 0xB29 JUMP JUMPDEST SWAP3 SWAP2 POP POP JUMP JUMPDEST PUSH1 0x0 PUSH1 0x20 DUP3 DUP5 SUB SLT ISZERO PUSH2 0xB6B JUMPI PUSH2 0xB6A PUSH2 0x666 JUMP JUMPDEST JUMPDEST PUSH1 0x0 PUSH2 0xB79 DUP5 DUP3 DUP6 ADD PUSH2 0xB40 JUMP JUMPDEST SWAP2 POP POP SWAP3 SWAP2 POP POP JUMP JUMPDEST PUSH1 0x0 PUSH1 0x40 DUP3 ADD SWAP1 POP DUP2 DUP2 SUB PUSH1 0x0 DUP4 ADD MSTORE PUSH2 0xB9C DUP2 DUP6 PUSH2 0x9ED JUMP JUMPDEST SWAP1 POP DUP2 DUP2 SUB PUSH1 0x20 DUP4 ADD MSTORE PUSH2 0xBB0 DUP2 DUP5 PUSH2 0x9ED JUMP JUMPDEST SWAP1 POP SWAP4 SWAP3 POP POP POP JUMP JUMPDEST PUSH2 0xBC2 DUP2 PUSH2 0x84E JUMP JUMPDEST DUP2 EQ PUSH2 0xBCD JUMPI PUSH1 0x0 DUP1 REVERT JUMPDEST POP JUMP JUMPDEST PUSH1 0x0 DUP2 MLOAD SWAP1 POP PUSH2 0xBDF DUP2 PUSH2 0xBB9 JUMP JUMPDEST SWAP3 SWAP2 POP POP JUMP JUMPDEST PUSH1 0x0 PUSH1 0x20 DUP3 DUP5 SUB SLT ISZERO PUSH2 0xBFB JUMPI PUSH2 0xBFA PUSH2 0x666 JUMP JUMPDEST JUMPDEST PUSH1 0x0 PUSH2 0xC09 DUP5 DUP3 DUP6 ADD PUSH2 0xBD0 JUMP JUMPDEST SWAP2 POP POP SWAP3 SWAP2 POP POP JUMP JUMPDEST PUSH2 0xC1B DUP2 PUSH2 0x88A JUMP JUMPDEST DUP2 EQ PUSH2 0xC26 JUMPI PUSH1 0x0 DUP1 REVERT JUMPDEST POP JUMP JUMPDEST PUSH1 0x0 DUP2 MLOAD SWAP1 POP PUSH2 0xC38 DUP2 PUSH2 0xC12 JUMP JUMPDEST SWAP3 SWAP2 POP POP JUMP JUMPDEST PUSH1 0x0 PUSH1 0x20 DUP3 DUP5 SUB SLT ISZERO PUSH2 0xC54 JUMPI PUSH2 0xC53 PUSH2 0x666 JUMP JUMPDEST JUMPDEST PUSH1 0x0 PUSH2 0xC62 DUP5 DUP3 DUP6 ADD PUSH2 0xC29 JUMP JUMPDEST SWAP2 POP POP SWAP3 SWAP2 POP POP JUMP JUMPDEST PUSH1 0x0 PUSH2 0xC7E PUSH2 0xC79 DUP5 PUSH2 0x706 JUMP JUMPDEST PUSH2 0x6EB JUMP JUMPDEST SWAP1 POP DUP3 DUP2 MSTORE PUSH1 0x20 DUP2 ADD DUP5 DUP5 DUP5 ADD GT ISZERO PUSH2 0xC9A JUMPI PUSH2 0xC99 PUSH2 0x675 JUMP JUMPDEST JUMPDEST PUSH2 0xCA5 DUP5 DUP3 DUP6 PUSH2 0x9BA JUMP JUMPDEST POP SWAP4 SWAP3 POP POP POP JUMP JUMPDEST PUSH1 0x0 DUP3 PUSH1 0x1F DUP4 ADD SLT PUSH2 0xCC2 JUMPI PUSH2 0xCC1 PUSH2 0x670 JUMP JUMPDEST JUMPDEST DUP2 MLOAD PUSH2 0xCD2 DUP5 DUP3 PUSH1 0x20 DUP7 ADD PUSH2 0xC6B JUMP JUMPDEST SWAP2 POP POP SWAP3 SWAP2 POP POP JUMP JUMPDEST PUSH1 0x0 PUSH1 0x20 DUP3 DUP5 SUB SLT ISZERO PUSH2 0xCF1 JUMPI PUSH2 0xCF0 PUSH2 0x666 JUMP JUMPDEST JUMPDEST PUSH1 0x0 DUP3 ADD MLOAD PUSH8 0xFFFFFFFFFFFFFFFF DUP2 GT ISZERO PUSH2 0xD0F JUMPI PUSH2 0xD0E PUSH2 0x66B JUMP JUMPDEST JUMPDEST PUSH2 0xD1B DUP5 DUP3 DUP6 ADD PUSH2 0xCAD JUMP JUMPDEST SWAP2 POP POP SWAP3 SWAP2 POP POP JUMP JUMPDEST PUSH1 0x0 PUSH1 0xA0 DUP3 ADD SWAP1 POP DUP2 DUP2 SUB PUSH1 0x0 DUP4 ADD MSTORE PUSH2 0xD3E DUP2 DUP9 PUSH2 0x9ED JUMP JUMPDEST SWAP1 POP DUP2 DUP2 SUB PUSH1 0x20 DUP4 ADD MSTORE PUSH2 0xD52 DUP2 DUP8 PUSH2 0x9ED JUMP JUMPDEST SWAP1 POP DUP2 DUP2 SUB PUSH1 0x40 DUP4 ADD MSTORE PUSH2 0xD66 DUP2 DUP7 PUSH2 0x9ED JUMP JUMPDEST SWAP1 POP DUP2 DUP2 SUB PUSH1 0x60 DUP4 ADD MSTORE PUSH2 0xD7A DUP2 DUP6 PUSH2 0x9ED JUMP JUMPDEST SWAP1 POP PUSH2 0xD89 PUSH1 0x80 DUP4 ADD DUP5 PUSH2 0x860 JUMP JUMPDEST SWAP7 SWAP6 POP POP POP POP POP POP JUMP INVALID PUSH1 0x80 PUSH1 0x40 MSTORE CALLVALUE DUP1 ISZERO PUSH2 0x10 JUMPI PUSH1 0x0 DUP1 REVERT JUMPDEST POP PUSH2 0x1F2F DUP1 PUSH2 0x20 PUSH1 0x0 CODECOPY PUSH1 0x0 RETURN INVALID PUSH1 0x80 PUSH1 0x40 MSTORE CALLVALUE DUP1 ISZERO PUSH3 0x11 JUMPI PUSH1 0x0 DUP1 REVERT JUMPDEST POP PUSH1 0x4 CALLDATASIZE LT PUSH3 0x46 JUMPI PUSH1 0x0 CALLDATALOAD PUSH1 0xE0 SHR DUP1 PUSH4 0x4ACB9D4F EQ PUSH3 0x4B JUMPI DUP1 PUSH4 0x62CC497E EQ PUSH3 0x6D JUMPI DUP1 PUSH4 0x980F2E66 EQ PUSH3 0xA3 JUMPI JUMPDEST PUSH1 0x0 DUP1 REVERT JUMPDEST PUSH3 0x55 PUSH3 0xC3 JUMP JUMPDEST PUSH1 0x40 MLOAD PUSH3 0x64 SWAP2 SWAP1 PUSH3 0x355 JUMP JUMPDEST PUSH1 0x40 MLOAD DUP1 SWAP2 SUB SWAP1 RETURN JUMPDEST PUSH3 0x8B PUSH1 0x4 DUP1 CALLDATASIZE SUB DUP2 ADD SWAP1 PUSH3 0x85 SWAP2 SWAP1 PUSH3 0x3C8 JUMP JUMPDEST PUSH3 0x153 JUMP JUMPDEST PUSH1 0x40 MLOAD PUSH3 0x9A SWAP2 SWAP1 PUSH3 0x40B JUMP JUMPDEST PUSH1 0x40 MLOAD DUP1 SWAP2 SUB SWAP1 RETURN JUMPDEST PUSH3 0xC1 PUSH1 0x4 DUP1 CALLDATASIZE SUB DUP2 ADD SWAP1 PUSH3 0xBB SWAP2 SWAP1 PUSH3 0x58A JUMP JUMPDEST PUSH3 0x193 JUMP JUMPDEST STOP JUMPDEST PUSH1 0x60 PUSH1 0x0 DUP1 SLOAD DUP1 PUSH1 0x20 MUL PUSH1 0x20 ADD PUSH1 0x40 MLOAD SWAP1 DUP2 ADD PUSH1 0x40 MSTORE DUP1 SWAP3 SWAP2 SWAP1 DUP2 DUP2 MSTORE PUSH1 0x20 ADD DUP3 DUP1 SLOAD DUP1 ISZERO PUSH3 0x149 JUMPI PUSH1 0x20 MUL DUP3 ADD SWAP2 SWAP1 PUSH1 0x0 MSTORE PUSH1 0x20 PUSH1 0x0 KECCAK256 SWAP1 JUMPDEST DUP2 PUSH1 0x0 SWAP1 SLOAD SWAP1 PUSH2 0x100 EXP SWAP1 DIV PUSH20 0xFFFFFFFFFFFFFFFFFFFFFFFFFFFFFFFFFFFFFFFF AND PUSH20 0xFFFFFFFFFFFFFFFFFFFFFFFFFFFFFFFFFFFFFFFF AND DUP2 MSTORE PUSH1 0x20 ADD SWAP1 PUSH1 0x1 ADD SWAP1 DUP1 DUP4 GT PUSH3 0xFE JUMPI JUMPDEST POP POP POP POP POP SWAP1 POP SWAP1 JUMP JUMPDEST PUSH1 0x0 DUP2 DUP2 SLOAD DUP2 LT PUSH3 0x164 JUMPI PUSH1 0x0 DUP1 REVERT JUMPDEST SWAP1 PUSH1 0x0 MSTORE PUSH1 0x20 PUSH1 0x0 KECCAK256 ADD PUSH1 0x0 SWAP2 POP SLOAD SWAP1 PUSH2 0x100 EXP SWAP1 DIV PUSH20 0xFFFFFFFFFFFFFFFFFFFFFFFFFFFFFFFFFFFFFFFF AND DUP2 JUMP JUMPDEST PUSH1 0x0 DUP6 DUP6 DUP6 DUP6 DUP6 CALLER PUSH1 0x40 MLOAD PUSH3 0x1A9 SWAP1 PUSH3 0x245 JUMP JUMPDEST PUSH3 0x1BA SWAP7 SWAP6 SWAP5 SWAP4 SWAP3 SWAP2 SWAP1 PUSH3 0x713 JUMP JUMPDEST PUSH1 0x40 MLOAD DUP1 SWAP2 SUB SWAP1 PUSH1 0x0 CREATE DUP1 ISZERO DUP1 ISZERO PUSH3 0x1D7 JUMPI RETURNDATASIZE PUSH1 0x0 DUP1 RETURNDATACOPY RETURNDATASIZE PUSH1 0x0 REVERT JUMPDEST POP SWAP1 POP PUSH1 0x0 DUP2 SWAP1 DUP1 PUSH1 0x1 DUP2 SLOAD ADD DUP1 DUP3 SSTORE DUP1 SWAP2 POP POP PUSH1 0x1 SWAP1 SUB SWAP1 PUSH1 0x0 MSTORE PUSH1 0x20 PUSH1 0x0 KECCAK256 ADD PUSH1 0x0 SWAP1 SWAP2 SWAP1 SWAP2 SWAP1 SWAP2 PUSH2 0x100 EXP DUP2 SLOAD DUP2 PUSH20 0xFFFFFFFFFFFFFFFFFFFFFFFFFFFFFFFFFFFFFFFF MUL NOT AND SWAP1 DUP4 PUSH20 0xFFFFFFFFFFFFFFFFFFFFFFFFFFFFFFFFFFFFFFFF AND MUL OR SWAP1 SSTORE POP POP POP POP POP POP POP JUMP JUMPDEST PUSH2 0x1764 DUP1 PUSH3 0x796 DUP4 CODECOPY ADD SWAP1 JUMP JUMPDEST PUSH1 0x0 DUP2 MLOAD SWAP1 POP SWAP2 SWAP1 POP JUMP JUMPDEST PUSH1 0x0 DUP3 DUP3 MSTORE PUSH1 0x20 DUP3 ADD SWAP1 POP SWAP3 SWAP2 POP POP JUMP JUMPDEST PUSH1 0x0 DUP2 SWAP1 POP PUSH1 0x20 DUP3 ADD SWAP1 POP SWAP2 SWAP1 POP JUMP JUMPDEST PUSH1 0x0 PUSH20 0xFFFFFFFFFFFFFFFFFFFFFFFFFFFFFFFFFFFFFFFF DUP3 AND SWAP1 POP SWAP2 SWAP1 POP JUMP JUMPDEST PUSH1 0x0 PUSH3 0x2AC DUP3 PUSH3 0x27F JUMP JUMPDEST SWAP1 POP SWAP2 SWAP1 POP JUMP JUMPDEST PUSH3 0x2BE DUP2 PUSH3 0x29F JUMP JUMPDEST DUP3 MSTORE POP POP JUMP JUMPDEST PUSH1 0x0 PUSH3 0x2D2 DUP4 DUP4 PUSH3 0x2B3 JUMP JUMPDEST PUSH1 0x20 DUP4 ADD SWAP1 POP SWAP3 SWAP2 POP POP JUMP JUMPDEST PUSH1 0x0 PUSH1 0x20 DUP3 ADD SWAP1 POP SWAP2 SWAP1 POP JUMP JUMPDEST PUSH1 0x0 PUSH3 0x2F8 DUP3 PUSH3 0x253 JUMP JUMPDEST PUSH3 0x304 DUP2 DUP6 PUSH3 0x25E JUMP JUMPDEST SWAP4 POP PUSH3 0x311 DUP4 PUSH3 0x26F JUMP JUMPDEST DUP1 PUSH1 0x0 JUMPDEST DUP4 DUP2 LT ISZERO PUSH3 0x348 JUMPI DUP2 MLOAD PUSH3 0x32C DUP9 DUP3 PUSH3 0x2C4 JUMP JUMPDEST SWAP8 POP PUSH3 0x339 DUP4 PUSH3 0x2DE JUMP JUMPDEST SWAP3 POP POP PUSH1 0x1 DUP2 ADD SWAP1 POP PUSH3 0x315 JUMP JUMPDEST POP DUP6 SWAP4 POP POP POP POP SWAP3 SWAP2 POP POP JUMP JUMPDEST PUSH1 0x0 PUSH1 0x20 DUP3 ADD SWAP1 POP DUP2 DUP2 SUB PUSH1 0x0 DUP4 ADD MSTORE PUSH3 0x371 DUP2 DUP5 PUSH3 0x2EB JUMP JUMPDEST SWAP1 POP SWAP3 SWAP2 POP POP JUMP JUMPDEST PUSH1 0x0 PUSH1 0x40 MLOAD SWAP1 POP SWAP1 JUMP JUMPDEST PUSH1 0x0 DUP1 REVERT JUMPDEST PUSH1 0x0 DUP1 REVERT JUMPDEST PUSH1 0x0 DUP2 SWAP1 POP SWAP2 SWAP1 POP JUMP JUMPDEST PUSH3 0x3A2 DUP2 PUSH3 0x38D JUMP JUMPDEST DUP2 EQ PUSH3 0x3AE JUMPI PUSH1 0x0 DUP1 REVERT JUMPDEST POP JUMP JUMPDEST PUSH1 0x0 DUP2 CALLDATALOAD SWAP1 POP PUSH3 0x3C2 DUP2 PUSH3 0x397 JUMP JUMPDEST SWAP3 SWAP2 POP POP JUMP JUMPDEST PUSH1 0x0 PUSH1 0x20 DUP3 DUP5 SUB SLT ISZERO PUSH3 0x3E1 JUMPI PUSH3 0x3E0 PUSH3 0x383 JUMP JUMPDEST JUMPDEST PUSH1 0x0 PUSH3 0x3F1 DUP5 DUP3 DUP6 ADD PUSH3 0x3B1 JUMP JUMPDEST SWAP2 POP POP SWAP3 SWAP2 POP POP JUMP JUMPDEST PUSH3 0x405 DUP2 PUSH3 0x29F JUMP JUMPDEST DUP3 MSTORE POP POP JUMP JUMPDEST PUSH1 0x0 PUSH1 0x20 DUP3 ADD SWAP1 POP PUSH3 0x422 PUSH1 0x0 DUP4 ADD DUP5 PUSH3 0x3FA JUMP JUMPDEST SWAP3 SWAP2 POP POP JUMP JUMPDEST PUSH1 0x0 DUP1 REVERT JUMPDEST PUSH1 0x0 DUP1 REVERT JUMPDEST PUSH1 0x0 PUSH1 0x1F NOT PUSH1 0x1F DUP4 ADD AND SWAP1 POP SWAP2 SWAP1 POP JUMP JUMPDEST PUSH32 0x4E487B7100000000000000000000000000000000000000000000000000000000 PUSH1 0x0 MSTORE PUSH1 0x41 PUSH1 0x4 MSTORE PUSH1 0x24 PUSH1 0x0 REVERT JUMPDEST PUSH3 0x47D DUP3 PUSH3 0x432 JUMP JUMPDEST DUP2 ADD DUP2 DUP2 LT PUSH8 0xFFFFFFFFFFFFFFFF DUP3 GT OR ISZERO PUSH3 0x49F JUMPI PUSH3 0x49E PUSH3 0x443 JUMP JUMPDEST JUMPDEST DUP1 PUSH1 0x40 MSTORE POP POP POP JUMP JUMPDEST PUSH1 0x0 PUSH3 0x4B4 PUSH3 0x379 JUMP JUMPDEST SWAP1 POP PUSH3 0x4C2 DUP3 DUP3 PUSH3 0x472 JUMP JUMPDEST SWAP2 SWAP1 POP JUMP JUMPDEST PUSH1 0x0 PUSH8 0xFFFFFFFFFFFFFFFF DUP3 GT ISZERO PUSH3 0x4E5 JUMPI PUSH3 0x4E4 PUSH3 0x443 JUMP JUMPDEST JUMPDEST PUSH3 0x4F0 DUP3 PUSH3 0x432 JUMP JUMPDEST SWAP1 POP PUSH1 0x20 DUP2 ADD SWAP1 POP SWAP2 SWAP1 POP JUMP JUMPDEST DUP3 DUP2 DUP4 CALLDATACOPY PUSH1 0x0 DUP4 DUP4 ADD MSTORE POP POP POP JUMP JUMPDEST PUSH1 0x0 PUSH3 0x523 PUSH3 0x51D DUP5 PUSH3 0x4C7 JUMP JUMPDEST PUSH3 0x4A8 JUMP JUMPDEST SWAP1 POP DUP3 DUP2 MSTORE PUSH1 0x20 DUP2 ADD DUP5 DUP5 DUP5 ADD GT ISZERO PUSH3 0x542 JUMPI PUSH3 0x541 PUSH3 0x42D JUMP JUMPDEST JUMPDEST PUSH3 0x54F DUP5 DUP3 DUP6 PUSH3 0x4FD JUMP JUMPDEST POP SWAP4 SWAP3 POP POP POP JUMP JUMPDEST PUSH1 0x0 DUP3 PUSH1 0x1F DUP4 ADD SLT PUSH3 0x56F JUMPI PUSH3 0x56E PUSH3 0x428 JUMP JUMPDEST JUMPDEST DUP2 CALLDATALOAD PUSH3 0x581 DUP5 DUP3 PUSH1 0x20 DUP7 ADD PUSH3 0x50C JUMP JUMPDEST SWAP2 POP POP SWAP3 SWAP2 POP POP JUMP JUMPDEST PUSH1 0x0 DUP1 PUSH1 0x0 DUP1 PUSH1 0x0 PUSH1 0xA0 DUP7 DUP9 SUB SLT ISZERO PUSH3 0x5A9 JUMPI PUSH3 0x5A8 PUSH3 0x383 JUMP JUMPDEST JUMPDEST PUSH1 0x0 DUP7 ADD CALLDATALOAD PUSH8 0xFFFFFFFFFFFFFFFF DUP2 GT ISZERO PUSH3 0x5CA JUMPI PUSH3 0x5C9 PUSH3 0x388 JUMP JUMPDEST JUMPDEST PUSH3 0x5D8 DUP9 DUP3 DUP10 ADD PUSH3 0x557 JUMP JUMPDEST SWAP6 POP POP PUSH1 0x20 DUP7 ADD CALLDATALOAD PUSH8 0xFFFFFFFFFFFFFFFF DUP2 GT ISZERO PUSH3 0x5FC JUMPI PUSH3 0x5FB PUSH3 0x388 JUMP JUMPDEST JUMPDEST PUSH3 0x60A DUP9 DUP3 DUP10 ADD PUSH3 0x557 JUMP JUMPDEST SWAP5 POP POP PUSH1 0x40 DUP7 ADD CALLDATALOAD PUSH8 0xFFFFFFFFFFFFFFFF DUP2 GT ISZERO PUSH3 0x62E JUMPI PUSH3 0x62D PUSH3 0x388 JUMP JUMPDEST JUMPDEST PUSH3 0x63C DUP9 DUP3 DUP10 ADD PUSH3 0x557 JUMP JUMPDEST SWAP4 POP POP PUSH1 0x60 PUSH3 0x64F DUP9 DUP3 DUP10 ADD PUSH3 0x3B1 JUMP JUMPDEST SWAP3 POP POP PUSH1 0x80 PUSH3 0x662 DUP9 DUP3 DUP10 ADD PUSH3 0x3B1 JUMP JUMPDEST SWAP2 POP POP SWAP3 SWAP6 POP SWAP3 SWAP6 SWAP1 SWAP4 POP JUMP JUMPDEST PUSH1 0x0 DUP2 MLOAD SWAP1 POP SWAP2 SWAP1 POP JUMP JUMPDEST PUSH1 0x0 DUP3 DUP3 MSTORE PUSH1 0x20 DUP3 ADD SWAP1 POP SWAP3 SWAP2 POP POP JUMP JUMPDEST PUSH1 0x0 JUMPDEST DUP4 DUP2 LT ISZERO PUSH3 0x6AB JUMPI DUP1 DUP3 ADD MLOAD DUP2 DUP5 ADD MSTORE PUSH1 0x20 DUP2 ADD SWAP1 POP PUSH3 0x68E JUMP JUMPDEST DUP4 DUP2 GT ISZERO PUSH3 0x6BB JUMPI PUSH1 0x0 DUP5 DUP5 ADD MSTORE JUMPDEST POP POP POP POP JUMP JUMPDEST PUSH1 0x0 PUSH3 0x6CE DUP3 PUSH3 0x66F JUMP JUMPDEST PUSH3 0x6DA DUP2 DUP6 PUSH3 0x67A JUMP JUMPDEST SWAP4 POP PUSH3 0x6EC DUP2 DUP6 PUSH1 0x20 DUP7 ADD PUSH3 0x68B JUMP JUMPDEST PUSH3 0x6F7 DUP2 PUSH3 0x432 JUMP JUMPDEST DUP5 ADD SWAP2 POP POP SWAP3 SWAP2 POP POP JUMP JUMPDEST PUSH3 0x70D DUP2 PUSH3 0x38D JUMP JUMPDEST DUP3 MSTORE POP POP JUMP JUMPDEST PUSH1 0x0 PUSH1 0xC0 DUP3 ADD SWAP1 POP DUP2 DUP2 SUB PUSH1 0x0 DUP4 ADD MSTORE PUSH3 0x72F DUP2 DUP10 PUSH3 0x6C1 JUMP JUMPDEST SWAP1 POP DUP2 DUP2 SUB PUSH1 0x20 DUP4 ADD MSTORE PUSH3 0x745 DUP2 DUP9 PUSH3 0x6C1 JUMP JUMPDEST SWAP1 POP DUP2 DUP2 SUB PUSH1 0x40 DUP4 ADD MSTORE PUSH3 0x75B DUP2 DUP8 PUSH3 0x6C1 JUMP JUMPDEST SWAP1 POP PUSH3 0x76C PUSH1 0x60 DUP4 ADD DUP7 PUSH3 0x702 JUMP JUMPDEST PUSH3 0x77B PUSH1 0x80 DUP4 ADD DUP6 PUSH3 0x702 JUMP JUMPDEST PUSH3 0x78A PUSH1 0xA0 DUP4 ADD DUP5 PUSH3 0x3FA JUMP JUMPDEST SWAP8 SWAP7 POP POP POP POP POP POP POP JUMP INVALID PUSH1 0x80 PUSH1 0x40 MSTORE CALLVALUE DUP1 ISZERO PUSH3 0x11 JUMPI PUSH1 0x0 DUP1 REVERT JUMPDEST POP PUSH1 0x40 MLOAD PUSH3 0x1764 CODESIZE SUB DUP1 PUSH3 0x1764 DUP4 CODECOPY DUP2 DUP2 ADD PUSH1 0x40 MSTORE DUP2 ADD SWAP1 PUSH3 0x37 SWAP2 SWAP1 PUSH3 0x3EC JUMP JUMPDEST DUP1 PUSH1 0x0 DUP1 PUSH2 0x100 EXP DUP2 SLOAD DUP2 PUSH20 0xFFFFFFFFFFFFFFFFFFFFFFFFFFFFFFFFFFFFFFFF MUL NOT AND SWAP1 DUP4 PUSH20 0xFFFFFFFFFFFFFFFFFFFFFFFFFFFFFFFFFFFFFFFF AND MUL OR SWAP1 SSTORE POP DUP6 PUSH1 0x1 SWAP1 DUP1 MLOAD SWAP1 PUSH1 0x20 ADD SWAP1 PUSH3 0x8F SWAP3 SWAP2 SWAP1 PUSH3 0xFF JUMP JUMPDEST POP DUP5 PUSH1 0x2 SWAP1 DUP1 MLOAD SWAP1 PUSH1 0x20 ADD SWAP1 PUSH3 0xA8 SWAP3 SWAP2 SWAP1 PUSH3 0xFF JUMP JUMPDEST POP DUP4 PUSH1 0x3 SWAP1 DUP1 MLOAD SWAP1 PUSH1 0x20 ADD SWAP1 PUSH3 0xC1 SWAP3 SWAP2 SWAP1 PUSH3 0xFF JUMP JUMPDEST POP DUP3 PUSH1 0x4 DUP2 SWAP1 SSTORE POP DUP2 PUSH1 0x5 DUP2 SWAP1 SSTORE POP PUSH1 0x1 PUSH1 0x6 PUSH1 0x0 PUSH2 0x100 EXP DUP2 SLOAD DUP2 PUSH1 0xFF MUL NOT AND SWAP1 DUP4 ISZERO ISZERO MUL OR SWAP1 SSTORE POP PUSH1 0x0 PUSH1 0x8 DUP2 SWAP1 SSTORE POP POP POP POP POP POP POP PUSH3 0x54A JUMP JUMPDEST DUP3 DUP1 SLOAD PUSH3 0x10D SWAP1 PUSH3 0x514 JUMP JUMPDEST SWAP1 PUSH1 0x0 MSTORE PUSH1 0x20 PUSH1 0x0 KECCAK256 SWAP1 PUSH1 0x1F ADD PUSH1 0x20 SWAP1 DIV DUP2 ADD SWAP3 DUP3 PUSH3 0x131 JUMPI PUSH1 0x0 DUP6 SSTORE PUSH3 0x17D JUMP JUMPDEST DUP3 PUSH1 0x1F LT PUSH3 0x14C JUMPI DUP1 MLOAD PUSH1 0xFF NOT AND DUP4 DUP1 ADD OR DUP6 SSTORE PUSH3 0x17D JUMP JUMPDEST DUP3 DUP1 ADD PUSH1 0x1 ADD DUP6 SSTORE DUP3 ISZERO PUSH3 0x17D JUMPI SWAP2 DUP3 ADD JUMPDEST DUP3 DUP2 GT ISZERO PUSH3 0x17C JUMPI DUP3 MLOAD DUP3 SSTORE SWAP2 PUSH1 0x20 ADD SWAP2 SWAP1 PUSH1 0x1 ADD SWAP1 PUSH3 0x15F JUMP JUMPDEST JUMPDEST POP SWAP1 POP PUSH3 0x18C SWAP2 SWAP1 PUSH3 0x190 JUMP JUMPDEST POP SWAP1 JUMP JUMPDEST JUMPDEST DUP1 DUP3 GT ISZERO PUSH3 0x1AB JUMPI PUSH1 0x0 DUP2 PUSH1 0x0 SWAP1 SSTORE POP PUSH1 0x1 ADD PUSH3 0x191 JUMP JUMPDEST POP SWAP1 JUMP JUMPDEST PUSH1 0x0 PUSH1 0x40 MLOAD SWAP1 POP SWAP1 JUMP JUMPDEST PUSH1 0x0 DUP1 REVERT JUMPDEST PUSH1 0x0 DUP1 REVERT JUMPDEST PUSH1 0x0 DUP1 REVERT JUMPDEST PUSH1 0x0 DUP1 REVERT JUMPDEST PUSH1 0x0 PUSH1 0x1F NOT PUSH1 0x1F DUP4 ADD AND SWAP1 POP SWAP2 SWAP1 POP JUMP JUMPDEST PUSH32 0x4E487B7100000000000000000000000000000000000000000000000000000000 PUSH1 0x0 MSTORE PUSH1 0x41 PUSH1 0x4 MSTORE PUSH1 0x24 PUSH1 0x0 REVERT JUMPDEST PUSH3 0x218 DUP3 PUSH3 0x1CD JUMP JUMPDEST DUP2 ADD DUP2 DUP2 LT PUSH8 0xFFFFFFFFFFFFFFFF DUP3 GT OR ISZERO PUSH3 0x23A JUMPI PUSH3 0x239 PUSH3 0x1DE JUMP JUMPDEST JUMPDEST DUP1 PUSH1 0x40 MSTORE POP POP POP JUMP JUMPDEST PUSH1 0x0 PUSH3 0x24F PUSH3 0x1AF JUMP JUMPDEST SWAP1 POP PUSH3 0x25D DUP3 DUP3 PUSH3 0x20D JUMP JUMPDEST SWAP2 SWAP1 POP JUMP JUMPDEST PUSH1 0x0 PUSH8 0xFFFFFFFFFFFFFFFF DUP3 GT ISZERO PUSH3 0x280 JUMPI PUSH3 0x27F PUSH3 0x1DE JUMP JUMPDEST JUMPDEST PUSH3 0x28B DUP3 PUSH3 0x1CD JUMP JUMPDEST SWAP1 POP PUSH1 0x20 DUP2 ADD SWAP1 POP SWAP2 SWAP1 POP JUMP JUMPDEST PUSH1 0x0 JUMPDEST DUP4 DUP2 LT ISZERO PUSH3 0x2B8 JUMPI DUP1 DUP3 ADD MLOAD DUP2 DUP5 ADD MSTORE PUSH1 0x20 DUP2 ADD SWAP1 POP PUSH3 0x29B JUMP JUMPDEST DUP4 DUP2 GT ISZERO PUSH3 0x2C8 JUMPI PUSH1 0x0 DUP5 DUP5 ADD MSTORE JUMPDEST POP POP POP POP JUMP JUMPDEST PUSH1 0x0 PUSH3 0x2E5 PUSH3 0x2DF DUP5 PUSH3 0x262 JUMP JUMPDEST PUSH3 0x243 JUMP JUMPDEST SWAP1 POP DUP3 DUP2 MSTORE PUSH1 0x20 DUP2 ADD DUP5 DUP5 DUP5 ADD GT ISZERO PUSH3 0x304 JUMPI PUSH3 0x303 PUSH3 0x1C8 JUMP JUMPDEST JUMPDEST PUSH3 0x311 DUP5 DUP3 DUP6 PUSH3 0x298 JUMP JUMPDEST POP SWAP4 SWAP3 POP POP POP JUMP JUMPDEST PUSH1 0x0 DUP3 PUSH1 0x1F DUP4 ADD SLT PUSH3 0x331 JUMPI PUSH3 0x330 PUSH3 0x1C3 JUMP JUMPDEST JUMPDEST DUP2 MLOAD PUSH3 0x343 DUP5 DUP3 PUSH1 0x20 DUP7 ADD PUSH3 0x2CE JUMP JUMPDEST SWAP2 POP POP SWAP3 SWAP2 POP POP JUMP JUMPDEST PUSH1 0x0 DUP2 SWAP1 POP SWAP2 SWAP1 POP JUMP JUMPDEST PUSH3 0x361 DUP2 PUSH3 0x34C JUMP JUMPDEST DUP2 EQ PUSH3 0x36D JUMPI PUSH1 0x0 DUP1 REVERT JUMPDEST POP JUMP JUMPDEST PUSH1 0x0 DUP2 MLOAD SWAP1 POP PUSH3 0x381 DUP2 PUSH3 0x356 JUMP JUMPDEST SWAP3 SWAP2 POP POP JUMP JUMPDEST PUSH1 0x0 PUSH20 0xFFFFFFFFFFFFFFFFFFFFFFFFFFFFFFFFFFFFFFFF DUP3 AND SWAP1 POP SWAP2 SWAP1 POP JUMP JUMPDEST PUSH1 0x0 PUSH3 0x3B4 DUP3 PUSH3 0x387 JUMP JUMPDEST SWAP1 POP SWAP2 SWAP1 POP JUMP JUMPDEST PUSH3 0x3C6 DUP2 PUSH3 0x3A7 JUMP JUMPDEST DUP2 EQ PUSH3 0x3D2 JUMPI PUSH1 0x0 DUP1 REVERT JUMPDEST POP JUMP JUMPDEST PUSH1 0x0 DUP2 MLOAD SWAP1 POP PUSH3 0x3E6 DUP2 PUSH3 0x3BB JUMP JUMPDEST SWAP3 SWAP2 POP POP JUMP JUMPDEST PUSH1 0x0 DUP1 PUSH1 0x0 DUP1 PUSH1 0x0 DUP1 PUSH1 0xC0 DUP8 DUP10 SUB SLT ISZERO PUSH3 0x40C JUMPI PUSH3 0x40B PUSH3 0x1B9 JUMP JUMPDEST JUMPDEST PUSH1 0x0 DUP8 ADD MLOAD PUSH8 0xFFFFFFFFFFFFFFFF DUP2 GT ISZERO PUSH3 0x42D JUMPI PUSH3 0x42C PUSH3 0x1BE JUMP JUMPDEST JUMPDEST PUSH3 0x43B DUP10 DUP3 DUP11 ADD PUSH3 0x319 JUMP JUMPDEST SWAP7 POP POP PUSH1 0x20 DUP8 ADD MLOAD PUSH8 0xFFFFFFFFFFFFFFFF DUP2 GT ISZERO PUSH3 0x45F JUMPI PUSH3 0x45E PUSH3 0x1BE JUMP JUMPDEST JUMPDEST PUSH3 0x46D DUP10 DUP3 DUP11 ADD PUSH3 0x319 JUMP JUMPDEST SWAP6 POP POP PUSH1 0x40 DUP8 ADD MLOAD PUSH8 0xFFFFFFFFFFFFFFFF DUP2 GT ISZERO PUSH3 0x491 JUMPI PUSH3 0x490 PUSH3 0x1BE JUMP JUMPDEST JUMPDEST PUSH3 0x49F DUP10 DUP3 DUP11 ADD PUSH3 0x319 JUMP JUMPDEST SWAP5 POP POP PUSH1 0x60 PUSH3 0x4B2 DUP10 DUP3 DUP11 ADD PUSH3 0x370 JUMP JUMPDEST SWAP4 POP POP PUSH1 0x80 PUSH3 0x4C5 DUP10 DUP3 DUP11 ADD PUSH3 0x370 JUMP JUMPDEST SWAP3 POP POP PUSH1 0xA0 PUSH3 0x4D8 DUP10 DUP3 DUP11 ADD PUSH3 0x3D5 JUMP JUMPDEST SWAP2 POP POP SWAP3 SWAP6 POP SWAP3 SWAP6 POP SWAP3 SWAP6 JUMP JUMPDEST PUSH32 0x4E487B7100000000000000000000000000000000000000000000000000000000 PUSH1 0x0 MSTORE PUSH1 0x22 PUSH1 0x4 MSTORE PUSH1 0x24 PUSH1 0x0 REVERT JUMPDEST PUSH1 0x0 PUSH1 0x2 DUP3 DIV SWAP1 POP PUSH1 0x1 DUP3 AND DUP1 PUSH3 0x52D JUMPI PUSH1 0x7F DUP3 AND SWAP2 POP JUMPDEST PUSH1 0x20 DUP3 LT DUP2 EQ ISZERO PUSH3 0x544 JUMPI PUSH3 0x543 PUSH3 0x4E5 JUMP JUMPDEST JUMPDEST POP SWAP2 SWAP1 POP JUMP JUMPDEST PUSH2 0x120A DUP1 PUSH3 0x55A PUSH1 0x0 CODECOPY PUSH1 0x0 RETURN INVALID PUSH1 0x80 PUSH1 0x40 MSTORE PUSH1 0x4 CALLDATASIZE LT PUSH2 0xE8 JUMPI PUSH1 0x0 CALLDATALOAD PUSH1 0xE0 SHR DUP1 PUSH4 0x81E0FFAE GT PUSH2 0x8A JUMPI DUP1 PUSH4 0xD7BB99BA GT PUSH2 0x59 JUMPI DUP1 PUSH4 0xD7BB99BA EQ PUSH2 0x2DB JUMPI DUP1 PUSH4 0xDA59CF76 EQ PUSH2 0x2E5 JUMPI DUP1 PUSH4 0xF66C6263 EQ PUSH2 0x310 JUMPI DUP1 PUSH4 0xFBA4D075 EQ PUSH2 0x33B JUMPI PUSH2 0xE8 JUMP JUMPDEST DUP1 PUSH4 0x81E0FFAE EQ PUSH2 0x22E JUMPI DUP1 PUSH4 0x9263323F EQ PUSH2 0x259 JUMPI DUP1 PUSH4 0xB85DFB80 EQ PUSH2 0x282 JUMPI DUP1 PUSH4 0xD52C74EC EQ PUSH2 0x2BF JUMPI PUSH2 0xE8 JUMP JUMPDEST DUP1 PUSH4 0x22F3E2D4 GT PUSH2 0xC6 JUMPI DUP1 PUSH4 0x22F3E2D4 EQ PUSH2 0x16C JUMPI DUP1 PUSH4 0x604DFA38 EQ PUSH2 0x197 JUMPI DUP1 PUSH4 0x6427F777 EQ PUSH2 0x1C2 JUMPI DUP1 PUSH4 0x81D12C58 EQ PUSH2 0x1ED JUMPI PUSH2 0xE8 JUMP JUMPDEST DUP1 PUSH4 0x2D05D3F EQ PUSH2 0xED JUMPI DUP1 PUSH4 0x6FDDE03 EQ PUSH2 0x118 JUMPI DUP1 PUSH4 0xC99D130 EQ PUSH2 0x143 JUMPI JUMPDEST PUSH1 0x0 DUP1 REVERT JUMPDEST CALLVALUE DUP1 ISZERO PUSH2 0xF9 JUMPI PUSH1 0x0 DUP1 REVERT JUMPDEST POP PUSH2 0x102 PUSH2 0x366 JUMP JUMPDEST PUSH1 0x40 MLOAD PUSH2 0x10F SWAP2 SWAP1 PUSH2 0xC05 JUMP JUMPDEST PUSH1 0x40 MLOAD DUP1 SWAP2 SUB SWAP1 RETURN JUMPDEST CALLVALUE DUP1 ISZERO PUSH2 0x124 JUMPI PUSH1 0x0 DUP1 REVERT JUMPDEST POP PUSH2 0x12D PUSH2 0x38A JUMP JUMPDEST PUSH1 0x40 MLOAD PUSH2 0x13A SWAP2 SWAP1 PUSH2 0xCB9 JUMP JUMPDEST PUSH1 0x40 MLOAD DUP1 SWAP2 SUB SWAP1 RETURN JUMPDEST CALLVALUE DUP1 ISZERO PUSH2 0x14F JUMPI PUSH1 0x0 DUP1 REVERT JUMPDEST POP PUSH2 0x16A PUSH1 0x4 DUP1 CALLDATASIZE SUB DUP2 ADD SWAP1 PUSH2 0x165 SWAP2 SWAP1 PUSH2 0xD25 JUMP JUMPDEST PUSH2 0x418 JUMP JUMPDEST STOP JUMPDEST CALLVALUE DUP1 ISZERO PUSH2 0x178 JUMPI PUSH1 0x0 DUP1 REVERT JUMPDEST POP PUSH2 0x181 PUSH2 0x565 JUMP JUMPDEST PUSH1 0x40 MLOAD PUSH2 0x18E SWAP2 SWAP1 PUSH2 0xD6D JUMP JUMPDEST PUSH1 0x40 MLOAD DUP1 SWAP2 SUB SWAP1 RETURN JUMPDEST CALLVALUE DUP1 ISZERO PUSH2 0x1A3 JUMPI PUSH1 0x0 DUP1 REVERT JUMPDEST POP PUSH2 0x1AC PUSH2 0x578 JUMP JUMPDEST PUSH1 0x40 MLOAD PUSH2 0x1B9 SWAP2 SWAP1 PUSH2 0xD97 JUMP JUMPDEST PUSH1 0x40 MLOAD DUP1 SWAP2 SUB SWAP1 RETURN JUMPDEST CALLVALUE DUP1 ISZERO PUSH2 0x1CE JUMPI PUSH1 0x0 DUP1 REVERT JUMPDEST POP PUSH2 0x1D7 PUSH2 0x57E JUMP JUMPDEST PUSH1 0x40 MLOAD PUSH2 0x1E4 SWAP2 SWAP1 PUSH2 0xCB9 JUMP JUMPDEST PUSH1 0x40 MLOAD DUP1 SWAP2 SUB SWAP1 RETURN JUMPDEST CALLVALUE DUP1 ISZERO PUSH2 0x1F9 JUMPI PUSH1 0x0 DUP1 REVERT JUMPDEST POP PUSH2 0x214 PUSH1 0x4 DUP1 CALLDATASIZE SUB DUP2 ADD SWAP1 PUSH2 0x20F SWAP2 SWAP1 PUSH2 0xD25 JUMP JUMPDEST PUSH2 0x60C JUMP JUMPDEST PUSH1 0x40 MLOAD PUSH2 0x225 SWAP6 SWAP5 SWAP4 SWAP3 SWAP2 SWAP1 PUSH2 0xDB2 JUMP JUMPDEST PUSH1 0x40 MLOAD DUP1 SWAP2 SUB SWAP1 RETURN JUMPDEST CALLVALUE DUP1 ISZERO PUSH2 0x23A JUMPI PUSH1 0x0 DUP1 REVERT JUMPDEST POP PUSH2 0x243 PUSH2 0x707 JUMP JUMPDEST PUSH1 0x40 MLOAD PUSH2 0x250 SWAP2 SWAP1 PUSH2 0xD97 JUMP JUMPDEST PUSH1 0x40 MLOAD DUP1 SWAP2 SUB SWAP1 RETURN JUMPDEST CALLVALUE DUP1 ISZERO PUSH2 0x265 JUMPI PUSH1 0x0 DUP1 REVERT JUMPDEST POP PUSH2 0x280 PUSH1 0x4 DUP1 CALLDATASIZE SUB DUP2 ADD SWAP1 PUSH2 0x27B SWAP2 SWAP1 PUSH2 0xD25 JUMP JUMPDEST PUSH2 0x70D JUMP JUMPDEST STOP JUMPDEST CALLVALUE DUP1 ISZERO PUSH2 0x28E JUMPI PUSH1 0x0 DUP1 REVERT JUMPDEST POP PUSH2 0x2A9 PUSH1 0x4 DUP1 CALLDATASIZE SUB DUP2 ADD SWAP1 PUSH2 0x2A4 SWAP2 SWAP1 PUSH2 0xE38 JUMP JUMPDEST PUSH2 0x85B JUMP JUMPDEST PUSH1 0x40 MLOAD PUSH2 0x2B6 SWAP2 SWAP1 PUSH2 0xD6D JUMP JUMPDEST PUSH1 0x40 MLOAD DUP1 SWAP2 SUB SWAP1 RETURN JUMPDEST PUSH2 0x2D9 PUSH1 0x4 DUP1 CALLDATASIZE SUB DUP2 ADD SWAP1 PUSH2 0x2D4 SWAP2 SWAP1 PUSH2 0xF9A JUMP JUMPDEST PUSH2 0x87B JUMP JUMPDEST STOP JUMPDEST PUSH2 0x2E3 PUSH2 0x989 JUMP JUMPDEST STOP JUMPDEST CALLVALUE DUP1 ISZERO PUSH2 0x2F1 JUMPI PUSH1 0x0 DUP1 REVERT JUMPDEST POP PUSH2 0x2FA PUSH2 0xA80 JUMP JUMPDEST PUSH1 0x40 MLOAD PUSH2 0x307 SWAP2 SWAP1 PUSH2 0xD97 JUMP JUMPDEST PUSH1 0x40 MLOAD DUP1 SWAP2 SUB SWAP1 RETURN JUMPDEST CALLVALUE DUP1 ISZERO PUSH2 0x31C JUMPI PUSH1 0x0 DUP1 REVERT JUMPDEST POP PUSH2 0x325 PUSH2 0xA86 JUMP JUMPDEST PUSH1 0x40 MLOAD PUSH2 0x332 SWAP2 SWAP1 PUSH2 0xD97 JUMP JUMPDEST PUSH1 0x40 MLOAD DUP1 SWAP2 SUB SWAP1 RETURN JUMPDEST CALLVALUE DUP1 ISZERO PUSH2 0x347 JUMPI PUSH1 0x0 DUP1 REVERT JUMPDEST POP PUSH2 0x350 PUSH2 0xA93 JUMP JUMPDEST PUSH1 0x40 MLOAD PUSH2 0x35D SWAP2 SWAP1 PUSH2 0xCB9 JUMP JUMPDEST PUSH1 0x40 MLOAD DUP1 SWAP2 SUB SWAP1 RETURN JUMPDEST PUSH1 0x0 DUP1 SLOAD SWAP1 PUSH2 0x100 EXP SWAP1 DIV PUSH20 0xFFFFFFFFFFFFFFFFFFFFFFFFFFFFFFFFFFFFFFFF AND DUP2 JUMP JUMPDEST PUSH1 0x2 DUP1 SLOAD PUSH2 0x397 SWAP1 PUSH2 0x1038 JUMP JUMPDEST DUP1 PUSH1 0x1F ADD PUSH1 0x20 DUP1 SWAP2 DIV MUL PUSH1 0x20 ADD PUSH1 0x40 MLOAD SWAP1 DUP2 ADD PUSH1 0x40 MSTORE DUP1 SWAP3 SWAP2 SWAP1 DUP2 DUP2 MSTORE PUSH1 0x20 ADD DUP3 DUP1 SLOAD PUSH2 0x3C3 SWAP1 PUSH2 0x1038 JUMP JUMPDEST DUP1 ISZERO PUSH2 0x410 JUMPI DUP1 PUSH1 0x1F LT PUSH2 0x3E5 JUMPI PUSH2 0x100 DUP1 DUP4 SLOAD DIV MUL DUP4 MSTORE SWAP2 PUSH1 0x20 ADD SWAP2 PUSH2 0x410 JUMP JUMPDEST DUP3 ADD SWAP2 SWAP1 PUSH1 0x0 MSTORE PUSH1 0x20 PUSH1 0x0 KECCAK256 SWAP1 JUMPDEST DUP2 SLOAD DUP2 MSTORE SWAP1 PUSH1 0x1 ADD SWAP1 PUSH1 0x20 ADD DUP1 DUP4 GT PUSH2 0x3F3 JUMPI DUP3 SWAP1 SUB PUSH1 0x1F AND DUP3 ADD SWAP2 JUMPDEST POP POP POP POP POP DUP2 JUMP JUMPDEST PUSH1 0x0 PUSH1 0x9 DUP3 DUP2 SLOAD DUP2 LT PUSH2 0x42E JUMPI PUSH2 0x42D PUSH2 0x106A JUMP JUMPDEST JUMPDEST SWAP1 PUSH1 0x0 MSTORE PUSH1 0x20 PUSH1 0x0 KECCAK256 SWAP1 PUSH1 0x5 MUL ADD SWAP1 POP PUSH1 0x7 PUSH1 0x0 CALLER PUSH20 0xFFFFFFFFFFFFFFFFFFFFFFFFFFFFFFFFFFFFFFFF AND PUSH20 0xFFFFFFFFFFFFFFFFFFFFFFFFFFFFFFFFFFFFFFFF AND DUP2 MSTORE PUSH1 0x20 ADD SWAP1 DUP2 MSTORE PUSH1 0x20 ADD PUSH1 0x0 KECCAK256 PUSH1 0x0 SWAP1 SLOAD SWAP1 PUSH2 0x100 EXP SWAP1 DIV PUSH1 0xFF AND PUSH2 0x494 JUMPI PUSH1 0x0 DUP1 REVERT JUMPDEST DUP1 PUSH1 0x4 ADD PUSH1 0x0 CALLER PUSH20 0xFFFFFFFFFFFFFFFFFFFFFFFFFFFFFFFFFFFFFFFF AND PUSH20 0xFFFFFFFFFFFFFFFFFFFFFFFFFFFFFFFFFFFFFFFF AND DUP2 MSTORE PUSH1 0x20 ADD SWAP1 DUP2 MSTORE PUSH1 0x20 ADD PUSH1 0x0 KECCAK256 PUSH1 0x0 SWAP1 SLOAD SWAP1 PUSH2 0x100 EXP SWAP1 DIV PUSH1 0xFF AND ISZERO PUSH2 0x4ED JUMPI PUSH1 0x0 DUP1 REVERT JUMPDEST PUSH1 0x1 DUP2 PUSH1 0x4 ADD PUSH1 0x0 CALLER PUSH20 0xFFFFFFFFFFFFFFFFFFFFFFFFFFFFFFFFFFFFFFFF AND PUSH20 0xFFFFFFFFFFFFFFFFFFFFFFFFFFFFFFFFFFFFFFFF AND DUP2 MSTORE PUSH1 0x20 ADD SWAP1 DUP2 MSTORE PUSH1 0x20 ADD PUSH1 0x0 KECCAK256 PUSH1 0x0 PUSH2 0x100 EXP DUP2 SLOAD DUP2 PUSH1 0xFF MUL NOT AND SWAP1 DUP4 ISZERO ISZERO MUL OR SWAP1 SSTORE POP DUP1 PUSH1 0x3 ADD PUSH1 0x0 DUP2 SLOAD DUP1 SWAP3 SWAP2 SWAP1 PUSH2 0x55C SWAP1 PUSH2 0x10C8 JUMP JUMPDEST SWAP2 SWAP1 POP SSTORE POP POP POP JUMP JUMPDEST PUSH1 0x6 PUSH1 0x0 SWAP1 SLOAD SWAP1 PUSH2 0x100 EXP SWAP1 DIV PUSH1 0xFF AND DUP2 JUMP JUMPDEST PUSH1 0x8 SLOAD DUP2 JUMP JUMPDEST PUSH1 0x3 DUP1 SLOAD PUSH2 0x58B SWAP1 PUSH2 0x1038 JUMP JUMPDEST DUP1 PUSH1 0x1F ADD PUSH1 0x20 DUP1 SWAP2 DIV MUL PUSH1 0x20 ADD PUSH1 0x40 MLOAD SWAP1 DUP2 ADD PUSH1 0x40 MSTORE DUP1 SWAP3 SWAP2 SWAP1 DUP2 DUP2 MSTORE PUSH1 0x20 ADD DUP3 DUP1 SLOAD PUSH2 0x5B7 SWAP1 PUSH2 0x1038 JUMP JUMPDEST DUP1 ISZERO PUSH2 0x604 JUMPI DUP1 PUSH1 0x1F LT PUSH2 0x5D9 JUMPI PUSH2 0x100 DUP1 DUP4 SLOAD DIV MUL DUP4 MSTORE SWAP2 PUSH1 0x20 ADD SWAP2 PUSH2 0x604 JUMP JUMPDEST DUP3 ADD SWAP2 SWAP1 PUSH1 0x0 MSTORE PUSH1 0x20 PUSH1 0x0 KECCAK256 SWAP1 JUMPDEST DUP2 SLOAD DUP2 MSTORE SWAP1 PUSH1 0x1 ADD SWAP1 PUSH1 0x20 ADD DUP1 DUP4 GT PUSH2 0x5E7 JUMPI DUP3 SWAP1 SUB PUSH1 0x1F AND DUP3 ADD SWAP2 JUMPDEST POP POP POP POP POP DUP2 JUMP JUMPDEST PUSH1 0x9 DUP2 DUP2 SLOAD DUP2 LT PUSH2 0x61C JUMPI PUSH1 0x0 DUP1 REVERT JUMPDEST SWAP1 PUSH1 0x0 MSTORE PUSH1 0x20 PUSH1 0x0 KECCAK256 SWAP1 PUSH1 0x5 MUL ADD PUSH1 0x0 SWAP2 POP SWAP1 POP DUP1 PUSH1 0x0 ADD DUP1 SLOAD PUSH2 0x63F SWAP1 PUSH2 0x1038 JUMP JUMPDEST DUP1 PUSH1 0x1F ADD PUSH1 0x20 DUP1 SWAP2 DIV MUL PUSH1 0x20 ADD PUSH1 0x40 MLOAD SWAP1 DUP2 ADD PUSH1 0x40 MSTORE DUP1 SWAP3 SWAP2 SWAP1 DUP2 DUP2 MSTORE PUSH1 0x20 ADD DUP3 DUP1 SLOAD PUSH2 0x66B SWAP1 PUSH2 0x1038 JUMP JUMPDEST DUP1 ISZERO PUSH2 0x6B8 JUMPI DUP1 PUSH1 0x1F LT PUSH2 0x68D JUMPI PUSH2 0x100 DUP1 DUP4 SLOAD DIV MUL DUP4 MSTORE SWAP2 PUSH1 0x20 ADD SWAP2 PUSH2 0x6B8 JUMP JUMPDEST DUP3 ADD SWAP2 SWAP1 PUSH1 0x0 MSTORE PUSH1 0x20 PUSH1 0x0 KECCAK256 SWAP1 JUMPDEST DUP2 SLOAD DUP2 MSTORE SWAP1 PUSH1 0x1 ADD SWAP1 PUSH1 0x20 ADD DUP1 DUP4 GT PUSH2 0x69B JUMPI DUP3 SWAP1 SUB PUSH1 0x1F AND DUP3 ADD SWAP2 JUMPDEST POP POP POP POP POP SWAP1 DUP1 PUSH1 0x1 ADD SLOAD SWAP1 DUP1 PUSH1 0x2 ADD PUSH1 0x0 SWAP1 SLOAD SWAP1 PUSH2 0x100 EXP SWAP1 DIV PUSH20 0xFFFFFFFFFFFFFFFFFFFFFFFFFFFFFFFFFFFFFFFF AND SWAP1 DUP1 PUSH1 0x2 ADD PUSH1 0x14 SWAP1 SLOAD SWAP1 PUSH2 0x100 EXP SWAP1 DIV PUSH1 0xFF AND SWAP1 DUP1 PUSH1 0x3 ADD SLOAD SWAP1 POP DUP6 JUMP JUMPDEST PUSH1 0x5 SLOAD DUP2 JUMP JUMPDEST PUSH1 0x0 DUP1 SLOAD SWAP1 PUSH2 0x100 EXP SWAP1 DIV PUSH20 0xFFFFFFFFFFFFFFFFFFFFFFFFFFFFFFFFFFFFFFFF AND PUSH20 0xFFFFFFFFFFFFFFFFFFFFFFFFFFFFFFFFFFFFFFFF AND CALLER PUSH20 0xFFFFFFFFFFFFFFFFFFFFFFFFFFFFFFFFFFFFFFFF AND EQ PUSH2 0x765 JUMPI PUSH1 0x0 DUP1 REVERT JUMPDEST PUSH1 0x0 PUSH1 0x9 DUP3 DUP2 SLOAD DUP2 LT PUSH2 0x77B JUMPI PUSH2 0x77A PUSH2 0x106A JUMP JUMPDEST JUMPDEST SWAP1 PUSH1 0x0 MSTORE PUSH1 0x20 PUSH1 0x0 KECCAK256 SWAP1 PUSH1 0x5 MUL ADD SWAP1 POP PUSH1 0x2 PUSH1 0x8 SLOAD PUSH2 0x79A SWAP2 SWAP1 PUSH2 0x1140 JUMP JUMPDEST DUP2 PUSH1 0x3 ADD SLOAD GT PUSH2 0x7A9 JUMPI PUSH1 0x0 DUP1 REVERT JUMPDEST DUP1 PUSH1 0x2 ADD PUSH1 0x14 SWAP1 SLOAD SWAP1 PUSH2 0x100 EXP SWAP1 DIV PUSH1 0xFF AND ISZERO PUSH2 0x7C5 JUMPI PUSH1 0x0 DUP1 REVERT JUMPDEST PUSH1 0x0 DUP2 PUSH1 0x2 ADD PUSH1 0x0 SWAP1 SLOAD SWAP1 PUSH2 0x100 EXP SWAP1 DIV PUSH20 0xFFFFFFFFFFFFFFFFFFFFFFFFFFFFFFFFFFFFFFFF AND SWAP1 POP DUP1 PUSH20 0xFFFFFFFFFFFFFFFFFFFFFFFFFFFFFFFFFFFFFFFF AND PUSH2 0x8FC DUP4 PUSH1 0x1 ADD SLOAD SWAP1 DUP2 ISZERO MUL SWAP1 PUSH1 0x40 MLOAD PUSH1 0x0 PUSH1 0x40 MLOAD DUP1 DUP4 SUB DUP2 DUP6 DUP9 DUP9 CALL SWAP4 POP POP POP POP ISZERO DUP1 ISZERO PUSH2 0x838 JUMPI RETURNDATASIZE PUSH1 0x0 DUP1 RETURNDATACOPY RETURNDATASIZE PUSH1 0x0 REVERT JUMPDEST POP PUSH1 0x1 DUP3 PUSH1 0x2 ADD PUSH1 0x14 PUSH2 0x100 EXP DUP2 SLOAD DUP2 PUSH1 0xFF MUL NOT AND SWAP1 DUP4 ISZERO ISZERO MUL OR SWAP1 SSTORE POP POP POP POP JUMP JUMPDEST PUSH1 0x7 PUSH1 0x20 MSTORE DUP1 PUSH1 0x0 MSTORE PUSH1 0x40 PUSH1 0x0 KECCAK256 PUSH1 0x0 SWAP2 POP SLOAD SWAP1 PUSH2 0x100 EXP SWAP1 DIV PUSH1 0xFF AND DUP2 JUMP JUMPDEST PUSH1 0x0 DUP1 SLOAD SWAP1 PUSH2 0x100 EXP SWAP1 DIV PUSH20 0xFFFFFFFFFFFFFFFFFFFFFFFFFFFFFFFFFFFFFFFF AND PUSH20 0xFFFFFFFFFFFFFFFFFFFFFFFFFFFFFFFFFFFFFFFF AND CALLER PUSH20 0xFFFFFFFFFFFFFFFFFFFFFFFFFFFFFFFFFFFFFFFF AND EQ PUSH2 0x8D3 JUMPI PUSH1 0x0 DUP1 REVERT JUMPDEST PUSH1 0x0 PUSH1 0x9 PUSH1 0x1 DUP2 PUSH1 0x1 DUP2 SLOAD ADD DUP1 DUP3 SSTORE DUP1 SWAP2 POP POP SUB SWAP1 PUSH1 0x0 MSTORE PUSH1 0x20 PUSH1 0x0 KECCAK256 SWAP1 PUSH1 0x5 MUL ADD SWAP1 POP DUP4 DUP2 PUSH1 0x0 ADD SWAP1 DUP1 MLOAD SWAP1 PUSH1 0x20 ADD SWAP1 PUSH2 0x90F SWAP3 SWAP2 SWAP1 PUSH2 0xB21 JUMP JUMPDEST POP DUP3 DUP2 PUSH1 0x1 ADD DUP2 SWAP1 SSTORE POP DUP2 DUP2 PUSH1 0x2 ADD PUSH1 0x0 PUSH2 0x100 EXP DUP2 SLOAD DUP2 PUSH20 0xFFFFFFFFFFFFFFFFFFFFFFFFFFFFFFFFFFFFFFFF MUL NOT AND SWAP1 DUP4 PUSH20 0xFFFFFFFFFFFFFFFFFFFFFFFFFFFFFFFFFFFFFFFF AND MUL OR SWAP1 SSTORE POP PUSH1 0x0 DUP2 PUSH1 0x2 ADD PUSH1 0x14 PUSH2 0x100 EXP DUP2 SLOAD DUP2 PUSH1 0xFF MUL NOT AND SWAP1 DUP4 ISZERO ISZERO MUL OR SWAP1 SSTORE POP PUSH1 0x0 DUP2 PUSH1 0x3 ADD DUP2 SWAP1 SSTORE POP POP POP POP POP JUMP JUMPDEST PUSH1 0x4 SLOAD CALLVALUE LT ISZERO PUSH2 0x998 JUMPI PUSH1 0x0 DUP1 REVERT JUMPDEST PUSH1 0x1 PUSH1 0x7 PUSH1 0x0 CALLER PUSH20 0xFFFFFFFFFFFFFFFFFFFFFFFFFFFFFFFFFFFFFFFF AND PUSH20 0xFFFFFFFFFFFFFFFFFFFFFFFFFFFFFFFFFFFFFFFF AND DUP2 MSTORE PUSH1 0x20 ADD SWAP1 DUP2 MSTORE PUSH1 0x20 ADD PUSH1 0x0 KECCAK256 PUSH1 0x0 SWAP1 SLOAD SWAP1 PUSH2 0x100 EXP SWAP1 DIV PUSH1 0xFF AND PUSH1 0x40 MLOAD PUSH1 0x20 ADD PUSH2 0x9F7 SWAP2 SWAP1 PUSH2 0x11B9 JUMP JUMPDEST PUSH1 0x40 MLOAD PUSH1 0x20 DUP2 DUP4 SUB SUB DUP2 MSTORE SWAP1 PUSH1 0x40 MSTORE MLOAD LT ISZERO PUSH2 0xA7E JUMPI PUSH1 0x8 PUSH1 0x0 DUP2 SLOAD DUP1 SWAP3 SWAP2 SWAP1 PUSH2 0xA20 SWAP1 PUSH2 0x10C8 JUMP JUMPDEST SWAP2 SWAP1 POP SSTORE POP PUSH1 0x1 PUSH1 0x7 PUSH1 0x0 CALLER PUSH20 0xFFFFFFFFFFFFFFFFFFFFFFFFFFFFFFFFFFFFFFFF AND PUSH20 0xFFFFFFFFFFFFFFFFFFFFFFFFFFFFFFFFFFFFFFFF AND DUP2 MSTORE PUSH1 0x20 ADD SWAP1 DUP2 MSTORE PUSH1 0x20 ADD PUSH1 0x0 KECCAK256 PUSH1 0x0 PUSH2 0x100 EXP DUP2 SLOAD DUP2 PUSH1 0xFF MUL NOT AND SWAP1 DUP4 ISZERO ISZERO MUL OR SWAP1 SSTORE POP JUMPDEST JUMP JUMPDEST PUSH1 0x4 SLOAD DUP2 JUMP JUMPDEST PUSH1 0x0 PUSH1 0x9 DUP1 SLOAD SWAP1 POP SWAP1 POP SWAP1 JUMP JUMPDEST PUSH1 0x1 DUP1 SLOAD PUSH2 0xAA0 SWAP1 PUSH2 0x1038 JUMP JUMPDEST DUP1 PUSH1 0x1F ADD PUSH1 0x20 DUP1 SWAP2 DIV MUL PUSH1 0x20 ADD PUSH1 0x40 MLOAD SWAP1 DUP2 ADD PUSH1 0x40 MSTORE DUP1 SWAP3 SWAP2 SWAP1 DUP2 DUP2 MSTORE PUSH1 0x20 ADD DUP3 DUP1 SLOAD PUSH2 0xACC SWAP1 PUSH2 0x1038 JUMP JUMPDEST DUP1 ISZERO PUSH2 0xB19 JUMPI DUP1 PUSH1 0x1F LT PUSH2 0xAEE JUMPI PUSH2 0x100 DUP1 DUP4 SLOAD DIV MUL DUP4 MSTORE SWAP2 PUSH1 0x20 ADD SWAP2 PUSH2 0xB19 JUMP JUMPDEST DUP3 ADD SWAP2 SWAP1 PUSH1 0x0 MSTORE PUSH1 0x20 PUSH1 0x0 KECCAK256 SWAP1 JUMPDEST DUP2 SLOAD DUP2 MSTORE SWAP1 PUSH1 0x1 ADD SWAP1 PUSH1 0x20 ADD DUP1 DUP4 GT PUSH2 0xAFC JUMPI DUP3 SWAP1 SUB PUSH1 0x1F AND DUP3 ADD SWAP2 JUMPDEST POP POP POP POP POP DUP2 JUMP JUMPDEST DUP3 DUP1 SLOAD PUSH2 0xB2D SWAP1 PUSH2 0x1038 JUMP JUMPDEST SWAP1 PUSH1 0x0 MSTORE PUSH1 0x20 PUSH1 0x0 KECCAK256 SWAP1 PUSH1 0x1F ADD PUSH1 0x20 SWAP1 DIV DUP2 ADD SWAP3 DUP3 PUSH2 0xB4F JUMPI PUSH1 0x0 DUP6 SSTORE PUSH2 0xB96 JUMP JUMPDEST DUP3 PUSH1 0x1F LT PUSH2 0xB68 JUMPI DUP1 MLOAD PUSH1 0xFF NOT AND DUP4 DUP1 ADD OR DUP6 SSTORE PUSH2 0xB96 JUMP JUMPDEST DUP3 DUP1 ADD PUSH1 0x1 ADD DUP6 SSTORE DUP3 ISZERO PUSH2 0xB96 JUMPI SWAP2 DUP3 ADD JUMPDEST DUP3 DUP2 GT ISZERO PUSH2 0xB95 JUMPI DUP3 MLOAD DUP3 SSTORE SWAP2 PUSH1 0x20 ADD SWAP2 SWAP1 PUSH1 0x1 ADD SWAP1 PUSH2 0xB7A JUMP JUMPDEST JUMPDEST POP SWAP1 POP PUSH2 0xBA3 SWAP2 SWAP1 PUSH2 0xBA7 JUMP JUMPDEST POP SWAP1 JUMP JUMPDEST JUMPDEST DUP1 DUP3 GT ISZERO PUSH2 0xBC0 JUMPI PUSH1 0x0 DUP2 PUSH1 0x0 SWAP1 SSTORE POP PUSH1 0x1 ADD PUSH2 0xBA8 JUMP JUMPDEST POP SWAP1 JUMP JUMPDEST PUSH1 0x0 PUSH20 0xFFFFFFFFFFFFFFFFFFFFFFFFFFFFFFFFFFFFFFFF DUP3 AND SWAP1 POP SWAP2 SWAP1 POP JUMP JUMPDEST PUSH1 0x0 PUSH2 0xBEF DUP3 PUSH2 0xBC4 JUMP JUMPDEST SWAP1 POP SWAP2 SWAP1 POP JUMP JUMPDEST PUSH2 0xBFF DUP2 PUSH2 0xBE4 JUMP JUMPDEST DUP3 MSTORE POP POP JUMP JUMPDEST PUSH1 0x0 PUSH1 0x20 DUP3 ADD SWAP1 POP PUSH2 0xC1A PUSH1 0x0 DUP4 ADD DUP5 PUSH2 0xBF6 JUMP JUMPDEST SWAP3 SWAP2 POP POP JUMP JUMPDEST PUSH1 0x0 DUP2 MLOAD SWAP1 POP SWAP2 SWAP1 POP JUMP JUMPDEST PUSH1 0x0 DUP3 DUP3 MSTORE PUSH1 0x20 DUP3 ADD SWAP1 POP SWAP3 SWAP2 POP POP JUMP JUMPDEST PUSH1 0x0 JUMPDEST DUP4 DUP2 LT ISZERO PUSH2 0xC5A JUMPI DUP1 DUP3 ADD MLOAD DUP2 DUP5 ADD MSTORE PUSH1 0x20 DUP2 ADD SWAP1 POP PUSH2 0xC3F JUMP JUMPDEST DUP4 DUP2 GT ISZERO PUSH2 0xC69 JUMPI PUSH1 0x0 DUP5 DUP5 ADD MSTORE JUMPDEST POP POP POP POP JUMP JUMPDEST PUSH1 0x0 PUSH1 0x1F NOT PUSH1 0x1F DUP4 ADD AND SWAP1 POP SWAP2 SWAP1 POP JUMP JUMPDEST PUSH1 0x0 PUSH2 0xC8B DUP3 PUSH2 0xC20 JUMP JUMPDEST PUSH2 0xC95 DUP2 DUP6 PUSH2 0xC2B JUMP JUMPDEST SWAP4 POP PUSH2 0xCA5 DUP2 DUP6 PUSH1 0x20 DUP7 ADD PUSH2 0xC3C JUMP JUMPDEST PUSH2 0xCAE DUP2 PUSH2 0xC6F JUMP JUMPDEST DUP5 ADD SWAP2 POP POP SWAP3 SWAP2 POP POP JUMP JUMPDEST PUSH1 0x0 PUSH1 0x20 DUP3 ADD SWAP1 POP DUP2 DUP2 SUB PUSH1 0x0 DUP4 ADD MSTORE PUSH2 0xCD3 DUP2 DUP5 PUSH2 0xC80 JUMP JUMPDEST SWAP1 POP SWAP3 SWAP2 POP POP JUMP JUMPDEST PUSH1 0x0 PUSH1 0x40 MLOAD SWAP1 POP SWAP1 JUMP JUMPDEST PUSH1 0x0 DUP1 REVERT JUMPDEST PUSH1 0x0 DUP1 REVERT JUMPDEST PUSH1 0x0 DUP2 SWAP1 POP SWAP2 SWAP1 POP JUMP JUMPDEST PUSH2 0xD02 DUP2 PUSH2 0xCEF JUMP JUMPDEST DUP2 EQ PUSH2 0xD0D JUMPI PUSH1 0x0 DUP1 REVERT JUMPDEST POP JUMP JUMPDEST PUSH1 0x0 DUP2 CALLDATALOAD SWAP1 POP PUSH2 0xD1F DUP2 PUSH2 0xCF9 JUMP JUMPDEST SWAP3 SWAP2 POP POP JUMP JUMPDEST PUSH1 0x0 PUSH1 0x20 DUP3 DUP5 SUB SLT ISZERO PUSH2 0xD3B JUMPI PUSH2 0xD3A PUSH2 0xCE5 JUMP JUMPDEST JUMPDEST PUSH1 0x0 PUSH2 0xD49 DUP5 DUP3 DUP6 ADD PUSH2 0xD10 JUMP JUMPDEST SWAP2 POP POP SWAP3 SWAP2 POP POP JUMP JUMPDEST PUSH1 0x0 DUP2 ISZERO ISZERO SWAP1 POP SWAP2 SWAP1 POP JUMP JUMPDEST PUSH2 0xD67 DUP2 PUSH2 0xD52 JUMP JUMPDEST DUP3 MSTORE POP POP JUMP JUMPDEST PUSH1 0x0 PUSH1 0x20 DUP3 ADD SWAP1 POP PUSH2 0xD82 PUSH1 0x0 DUP4 ADD DUP5 PUSH2 0xD5E JUMP JUMPDEST SWAP3 SWAP2 POP POP JUMP JUMPDEST PUSH2 0xD91 DUP2 PUSH2 0xCEF JUMP JUMPDEST DUP3 MSTORE POP POP JUMP JUMPDEST PUSH1 0x0 PUSH1 0x20 DUP3 ADD SWAP1 POP PUSH2 0xDAC PUSH1 0x0 DUP4 ADD DUP5 PUSH2 0xD88 JUMP JUMPDEST SWAP3 SWAP2 POP POP JUMP JUMPDEST PUSH1 0x0 PUSH1 0xA0 DUP3 ADD SWAP1 POP DUP2 DUP2 SUB PUSH1 0x0 DUP4 ADD MSTORE PUSH2 0xDCC DUP2 DUP9 PUSH2 0xC80 JUMP JUMPDEST SWAP1 POP PUSH2 0xDDB PUSH1 0x20 DUP4 ADD DUP8 PUSH2 0xD88 JUMP JUMPDEST PUSH2 0xDE8 PUSH1 0x40 DUP4 ADD DUP7 PUSH2 0xBF6 JUMP JUMPDEST PUSH2 0xDF5 PUSH1 0x60 DUP4 ADD DUP6 PUSH2 0xD5E JUMP JUMPDEST PUSH2 0xE02 PUSH1 0x80 DUP4 ADD DUP5 PUSH2 0xD88 JUMP JUMPDEST SWAP7 SWAP6 POP POP POP POP POP POP JUMP JUMPDEST PUSH2 0xE15 DUP2 PUSH2 0xBE4 JUMP JUMPDEST DUP2 EQ PUSH2 0xE20 JUMPI PUSH1 0x0 DUP1 REVERT JUMPDEST POP JUMP JUMPDEST PUSH1 0x0 DUP2 CALLDATALOAD SWAP1 POP PUSH2 0xE32 DUP2 PUSH2 0xE0C JUMP JUMPDEST SWAP3 SWAP2 POP POP JUMP JUMPDEST PUSH1 0x0 PUSH1 0x20 DUP3 DUP5 SUB SLT ISZERO PUSH2 0xE4E JUMPI PUSH2 0xE4D PUSH2 0xCE5 JUMP JUMPDEST JUMPDEST PUSH1 0x0 PUSH2 0xE5C DUP5 DUP3 DUP6 ADD PUSH2 0xE23 JUMP JUMPDEST SWAP2 POP POP SWAP3 SWAP2 POP POP JUMP JUMPDEST PUSH1 0x0 DUP1 REVERT JUMPDEST PUSH1 0x0 DUP1 REVERT JUMPDEST PUSH32 0x4E487B7100000000000000000000000000000000000000000000000000000000 PUSH1 0x0 MSTORE PUSH1 0x41 PUSH1 0x4 MSTORE PUSH1 0x24 PUSH1 0x0 REVERT JUMPDEST PUSH2 0xEA7 DUP3 PUSH2 0xC6F JUMP JUMPDEST DUP2 ADD DUP2 DUP2 LT PUSH8 0xFFFFFFFFFFFFFFFF DUP3 GT OR ISZERO PUSH2 0xEC6 JUMPI PUSH2 0xEC5 PUSH2 0xE6F JUMP JUMPDEST JUMPDEST DUP1 PUSH1 0x40 MSTORE POP POP POP JUMP JUMPDEST PUSH1 0x0 PUSH2 0xED9 PUSH2 0xCDB JUMP JUMPDEST SWAP1 POP PUSH2 0xEE5 DUP3 DUP3 PUSH2 0xE9E JUMP JUMPDEST SWAP2 SWAP1 POP JUMP JUMPDEST PUSH1 0x0 PUSH8 0xFFFFFFFFFFFFFFFF DUP3 GT ISZERO PUSH2 0xF05 JUMPI PUSH2 0xF04 PUSH2 0xE6F JUMP JUMPDEST JUMPDEST PUSH2 0xF0E DUP3 PUSH2 0xC6F JUMP JUMPDEST SWAP1 POP PUSH1 0x20 DUP2 ADD SWAP1 POP SWAP2 SWAP1 POP JUMP JUMPDEST DUP3 DUP2 DUP4 CALLDATACOPY PUSH1 0x0 DUP4 DUP4 ADD MSTORE POP POP POP JUMP JUMPDEST PUSH1 0x0 PUSH2 0xF3D PUSH2 0xF38 DUP5 PUSH2 0xEEA JUMP JUMPDEST PUSH2 0xECF JUMP JUMPDEST SWAP1 POP DUP3 DUP2 MSTORE PUSH1 0x20 DUP2 ADD DUP5 DUP5 DUP5 ADD GT ISZERO PUSH2 0xF59 JUMPI PUSH2 0xF58 PUSH2 0xE6A JUMP JUMPDEST JUMPDEST PUSH2 0xF64 DUP5 DUP3 DUP6 PUSH2 0xF1B JUMP JUMPDEST POP SWAP4 SWAP3 POP POP POP JUMP JUMPDEST PUSH1 0x0 DUP3 PUSH1 0x1F DUP4 ADD SLT PUSH2 0xF81 JUMPI PUSH2 0xF80 PUSH2 0xE65 JUMP JUMPDEST JUMPDEST DUP2 CALLDATALOAD PUSH2 0xF91 DUP5 DUP3 PUSH1 0x20 DUP7 ADD PUSH2 0xF2A JUMP JUMPDEST SWAP2 POP POP SWAP3 SWAP2 POP POP JUMP JUMPDEST PUSH1 0x0 DUP1 PUSH1 0x0 PUSH1 0x60 DUP5 DUP7 SUB SLT ISZERO PUSH2 0xFB3 JUMPI PUSH2 0xFB2 PUSH2 0xCE5 JUMP JUMPDEST JUMPDEST PUSH1 0x0 DUP5 ADD CALLDATALOAD PUSH8 0xFFFFFFFFFFFFFFFF DUP2 GT ISZERO PUSH2 0xFD1 JUMPI PUSH2 0xFD0 PUSH2 0xCEA JUMP JUMPDEST JUMPDEST PUSH2 0xFDD DUP7 DUP3 DUP8 ADD PUSH2 0xF6C JUMP JUMPDEST SWAP4 POP POP PUSH1 0x20 PUSH2 0xFEE DUP7 DUP3 DUP8 ADD PUSH2 0xD10 JUMP JUMPDEST SWAP3 POP POP PUSH1 0x40 PUSH2 0xFFF DUP7 DUP3 DUP8 ADD PUSH2 0xE23 JUMP JUMPDEST SWAP2 POP POP SWAP3 POP SWAP3 POP SWAP3 JUMP JUMPDEST PUSH32 0x4E487B7100000000000000000000000000000000000000000000000000000000 PUSH1 0x0 MSTORE PUSH1 0x22 PUSH1 0x4 MSTORE PUSH1 0x24 PUSH1 0x0 REVERT JUMPDEST PUSH1 0x0 PUSH1 0x2 DUP3 DIV SWAP1 POP PUSH1 0x1 DUP3 AND DUP1 PUSH2 0x1050 JUMPI PUSH1 0x7F DUP3 AND SWAP2 POP JUMPDEST PUSH1 0x20 DUP3 LT DUP2 EQ ISZERO PUSH2 0x1064 JUMPI PUSH2 0x1063 PUSH2 0x1009 JUMP JUMPDEST JUMPDEST POP SWAP2 SWAP1 POP JUMP JUMPDEST PUSH32 0x4E487B7100000000000000000000000000000000000000000000000000000000 PUSH1 0x0 MSTORE PUSH1 0x32 PUSH1 0x4 MSTORE PUSH1 0x24 PUSH1 0x0 REVERT JUMPDEST PUSH32 0x4E487B7100000000000000000000000000000000000000000000000000000000 PUSH1 0x0 MSTORE PUSH1 0x11 PUSH1 0x4 MSTORE PUSH1 0x24 PUSH1 0x0 REVERT JUMPDEST PUSH1 0x0 PUSH2 0x10D3 DUP3 PUSH2 0xCEF JUMP JUMPDEST SWAP2 POP PUSH32 0xFFFFFFFFFFFFFFFFFFFFFFFFFFFFFFFFFFFFFFFFFFFFFFFFFFFFFFFFFFFFFFFF DUP3 EQ ISZERO PUSH2 0x1106 JUMPI PUSH2 0x1105 PUSH2 0x1099 JUMP JUMPDEST JUMPDEST PUSH1 0x1 DUP3 ADD SWAP1 POP SWAP2 SWAP1 POP JUMP JUMPDEST PUSH32 0x4E487B7100000000000000000000000000000000000000000000000000000000 PUSH1 0x0 MSTORE PUSH1 0x12 PUSH1 0x4 MSTORE PUSH1 0x24 PUSH1 0x0 REVERT JUMPDEST PUSH1 0x0 PUSH2 0x114B DUP3 PUSH2 0xCEF JUMP JUMPDEST SWAP2 POP PUSH2 0x1156 DUP4 PUSH2 0xCEF JUMP JUMPDEST SWAP3 POP DUP3 PUSH2 0x1166 JUMPI PUSH2 0x1165 PUSH2 0x1111 JUMP JUMPDEST JUMPDEST DUP3 DUP3 DIV SWAP1 POP SWAP3 SWAP2 POP POP JUMP JUMPDEST PUSH1 0x0 DUP2 PUSH1 0xF8 SHL SWAP1 POP SWAP2 SWAP1 POP JUMP JUMPDEST PUSH1 0x0 PUSH2 0x1189 DUP3 PUSH2 0x1171 JUMP JUMPDEST SWAP1 POP SWAP2 SWAP1 POP JUMP JUMPDEST PUSH1 0x0 PUSH2 0x119B DUP3 PUSH2 0x117E JUMP JUMPDEST SWAP1 POP SWAP2 SWAP1 POP JUMP JUMPDEST PUSH2 0x11B3 PUSH2 0x11AE DUP3 PUSH2 0xD52 JUMP JUMPDEST PUSH2 0x1190 JUMP JUMPDEST DUP3 MSTORE POP POP JUMP JUMPDEST PUSH1 0x0 PUSH2 0x11C5 DUP3 DUP5 PUSH2 0x11A2 JUMP JUMPDEST PUSH1 0x1 DUP3 ADD SWAP2 POP DUP2 SWAP1 POP SWAP3 SWAP2 POP POP JUMP INVALID LOG2 PUSH5 0x6970667358 0x22 SLT KECCAK256 RETURN PUSH11 0x2FF58A714D70ACFAE08596 0xDE PUSH3 0xC638CB SWAP5 MSTORE 0xAB SWAP8 SWAP2 0xBF PUSH1 0xB4 PUSH30 0xA82AD4F41764736F6C634300080A0033A264697066735822122043B9575A SWAP9 PUSH28 0x496B446A7886907C33AFA00EE0AB6F226B997896EE7DA278BA6C6473 PUSH16 0x6C634300080A0033A264697066735822 SLT KECCAK256 PUSH1 0x1D CALLDATALOAD ORIGIN LOG4 0xB5 CALLER CALLDATALOAD SIGNEXTEND 0xEE 0xB7 EXTCODEHASH PUSH27 0xBB3239886691549003A23A787E521B09FE9F3764736F6C63430008 EXP STOP CALLER PUSH1 0x80 PUSH1 0x40 MSTORE CALLVALUE DUP1 ISZERO PUSH2 0x10 JUMPI PUSH1 0x0 DUP1 REVERT JUMPDEST POP PUSH2 0xA6F DUP1 PUSH2 0x20 PUSH1 0x0 CODECOPY PUSH1 0x0 RETURN INVALID PUSH1 0x80 PUSH1 0x40 MSTORE CALLVALUE DUP1 ISZERO PUSH2 0x10 JUMPI PUSH1 0x0 DUP1 REVERT JUMPDEST POP PUSH1 0x4 CALLDATASIZE LT PUSH2 0x57 JUMPI PUSH1 0x0 CALLDATALOAD PUSH1 0xE0 SHR DUP1 PUSH4 0x37EBD637 EQ PUSH2 0x5C JUMPI DUP1 PUSH4 0x58467DBC EQ PUSH2 0x8C JUMPI DUP1 PUSH4 0x7BA01388 EQ PUSH2 0xBC JUMPI DUP1 PUSH4 0x86576007 EQ PUSH2 0xEC JUMPI DUP1 PUSH4 0xF3CFF1FF EQ PUSH2 0x108 JUMPI JUMPDEST PUSH1 0x0 DUP1 REVERT JUMPDEST PUSH2 0x76 PUSH1 0x4 DUP1 CALLDATASIZE SUB DUP2 ADD SWAP1 PUSH2 0x71 SWAP2 SWAP1 PUSH2 0x6BC JUMP JUMPDEST PUSH2 0x138 JUMP JUMPDEST PUSH1 0x40 MLOAD PUSH2 0x83 SWAP2 SWAP1 PUSH2 0x775 JUMP JUMPDEST PUSH1 0x40 MLOAD DUP1 SWAP2 SUB SWAP1 RETURN JUMPDEST PUSH2 0xA6 PUSH1 0x4 DUP1 CALLDATASIZE SUB DUP2 ADD SWAP1 PUSH2 0xA1 SWAP2 SWAP1 PUSH2 0x6BC JUMP JUMPDEST PUSH2 0x19A JUMP JUMPDEST PUSH1 0x40 MLOAD PUSH2 0xB3 SWAP2 SWAP1 PUSH2 0x7A9 JUMP JUMPDEST PUSH1 0x40 MLOAD DUP1 SWAP2 SUB SWAP1 RETURN JUMPDEST PUSH2 0xD6 PUSH1 0x4 DUP1 CALLDATASIZE SUB DUP2 ADD SWAP1 PUSH2 0xD1 SWAP2 SWAP1 PUSH2 0x6BC JUMP JUMPDEST PUSH2 0x1DE JUMP JUMPDEST PUSH1 0x40 MLOAD PUSH2 0xE3 SWAP2 SWAP1 PUSH2 0x84C JUMP JUMPDEST PUSH1 0x40 MLOAD DUP1 SWAP2 SUB SWAP1 RETURN JUMPDEST PUSH2 0x106 PUSH1 0x4 DUP1 CALLDATASIZE SUB DUP2 ADD SWAP1 PUSH2 0x101 SWAP2 SWAP1 PUSH2 0x89A JUMP JUMPDEST PUSH2 0x2B6 JUMP JUMPDEST STOP JUMPDEST PUSH2 0x122 PUSH1 0x4 DUP1 CALLDATASIZE SUB DUP2 ADD SWAP1 PUSH2 0x11D SWAP2 SWAP1 PUSH2 0x6BC JUMP JUMPDEST PUSH2 0x3AA JUMP JUMPDEST PUSH1 0x40 MLOAD PUSH2 0x12F SWAP2 SWAP1 PUSH2 0x84C JUMP JUMPDEST PUSH1 0x40 MLOAD DUP1 SWAP2 SUB SWAP1 RETURN JUMPDEST PUSH1 0x0 PUSH2 0x144 DUP4 DUP4 PUSH2 0x482 JUMP JUMPDEST ISZERO PUSH2 0x18F JUMPI PUSH1 0x3 DUP4 PUSH1 0x40 MLOAD PUSH2 0x159 SWAP2 SWAP1 PUSH2 0x9C1 JUMP JUMPDEST SWAP1 DUP2 MSTORE PUSH1 0x20 ADD PUSH1 0x40 MLOAD DUP1 SWAP2 SUB SWAP1 KECCAK256 PUSH1 0x0 SWAP1 SLOAD SWAP1 PUSH2 0x100 EXP SWAP1 DIV PUSH20 0xFFFFFFFFFFFFFFFFFFFFFFFFFFFFFFFFFFFFFFFF AND SWAP1 POP PUSH2 0x194 JUMP JUMPDEST PUSH1 0x0 SWAP1 POP JUMPDEST SWAP3 SWAP2 POP POP JUMP JUMPDEST PUSH1 0x0 PUSH2 0x1A6 DUP4 DUP4 PUSH2 0x482 JUMP JUMPDEST ISZERO PUSH2 0x1B4 JUMPI PUSH1 0x45 SWAP1 POP PUSH2 0x1D8 JUMP JUMPDEST PUSH32 0xFFFFFFFFFFFFFFFFFFFFFFFFFFFFFFFFFFFFFFFFFFFFFFFFFFFFFFFFFFFFFFBB SWAP1 POP JUMPDEST SWAP3 SWAP2 POP POP JUMP JUMPDEST PUSH1 0x60 PUSH2 0x1EA DUP4 DUP4 PUSH2 0x482 JUMP JUMPDEST ISZERO PUSH2 0x29D JUMPI PUSH1 0x2 DUP4 PUSH1 0x40 MLOAD PUSH2 0x1FF SWAP2 SWAP1 PUSH2 0x9C1 JUMP JUMPDEST SWAP1 DUP2 MSTORE PUSH1 0x20 ADD PUSH1 0x40 MLOAD DUP1 SWAP2 SUB SWAP1 KECCAK256 DUP1 SLOAD PUSH2 0x218 SWAP1 PUSH2 0xA07 JUMP JUMPDEST DUP1 PUSH1 0x1F ADD PUSH1 0x20 DUP1 SWAP2 DIV MUL PUSH1 0x20 ADD PUSH1 0x40 MLOAD SWAP1 DUP2 ADD PUSH1 0x40 MSTORE DUP1 SWAP3 SWAP2 SWAP1 DUP2 DUP2 MSTORE PUSH1 0x20 ADD DUP3 DUP1 SLOAD PUSH2 0x244 SWAP1 PUSH2 0xA07 JUMP JUMPDEST DUP1 ISZERO PUSH2 0x291 JUMPI DUP1 PUSH1 0x1F LT PUSH2 0x266 JUMPI PUSH2 0x100 DUP1 DUP4 SLOAD DIV MUL DUP4 MSTORE SWAP2 PUSH1 0x20 ADD SWAP2 PUSH2 0x291 JUMP JUMPDEST DUP3 ADD SWAP2 SWAP1 PUSH1 0x0 MSTORE PUSH1 0x20 PUSH1 0x0 KECCAK256 SWAP1 JUMPDEST DUP2 SLOAD DUP2 MSTORE SWAP1 PUSH1 0x1 ADD SWAP1 PUSH1 0x20 ADD DUP1 DUP4 GT PUSH2 0x274 JUMPI DUP3 SWAP1 SUB PUSH1 0x1F AND DUP3 ADD SWAP2 JUMPDEST POP POP POP POP POP SWAP1 POP PUSH2 0x2B0 JUMP JUMPDEST PUSH1 0x40 MLOAD DUP1 PUSH1 0x20 ADD PUSH1 0x40 MSTORE DUP1 PUSH1 0x0 DUP2 MSTORE POP SWAP1 POP JUMPDEST SWAP3 SWAP2 POP POP JUMP JUMPDEST DUP4 DUP1 MLOAD SWAP1 PUSH1 0x20 ADD KECCAK256 PUSH1 0x0 DUP7 PUSH1 0x40 MLOAD PUSH2 0x2CE SWAP2 SWAP1 PUSH2 0x9C1 JUMP JUMPDEST SWAP1 DUP2 MSTORE PUSH1 0x20 ADD PUSH1 0x40 MLOAD DUP1 SWAP2 SUB SWAP1 KECCAK256 DUP2 SWAP1 SSTORE POP DUP3 PUSH1 0x2 DUP7 PUSH1 0x40 MLOAD PUSH2 0x2F1 SWAP2 SWAP1 PUSH2 0x9C1 JUMP JUMPDEST SWAP1 DUP2 MSTORE PUSH1 0x20 ADD PUSH1 0x40 MLOAD DUP1 SWAP2 SUB SWAP1 KECCAK256 SWAP1 DUP1 MLOAD SWAP1 PUSH1 0x20 ADD SWAP1 PUSH2 0x312 SWAP3 SWAP2 SWAP1 PUSH2 0x4BF JUMP JUMPDEST POP DUP2 PUSH1 0x1 DUP7 PUSH1 0x40 MLOAD PUSH2 0x324 SWAP2 SWAP1 PUSH2 0x9C1 JUMP JUMPDEST SWAP1 DUP2 MSTORE PUSH1 0x20 ADD PUSH1 0x40 MLOAD DUP1 SWAP2 SUB SWAP1 KECCAK256 SWAP1 DUP1 MLOAD SWAP1 PUSH1 0x20 ADD SWAP1 PUSH2 0x345 SWAP3 SWAP2 SWAP1 PUSH2 0x4BF JUMP JUMPDEST POP DUP1 PUSH1 0x3 DUP7 PUSH1 0x40 MLOAD PUSH2 0x357 SWAP2 SWAP1 PUSH2 0x9C1 JUMP JUMPDEST SWAP1 DUP2 MSTORE PUSH1 0x20 ADD PUSH1 0x40 MLOAD DUP1 SWAP2 SUB SWAP1 KECCAK256 PUSH1 0x0 PUSH2 0x100 EXP DUP2 SLOAD DUP2 PUSH20 0xFFFFFFFFFFFFFFFFFFFFFFFFFFFFFFFFFFFFFFFF MUL NOT AND SWAP1 DUP4 PUSH20 0xFFFFFFFFFFFFFFFFFFFFFFFFFFFFFFFFFFFFFFFF AND MUL OR SWAP1 SSTORE POP POP POP POP POP POP JUMP JUMPDEST PUSH1 0x60 PUSH2 0x3B6 DUP4 DUP4 PUSH2 0x482 JUMP JUMPDEST ISZERO PUSH2 0x469 JUMPI PUSH1 0x1 DUP4 PUSH1 0x40 MLOAD PUSH2 0x3CB SWAP2 SWAP1 PUSH2 0x9C1 JUMP JUMPDEST SWAP1 DUP2 MSTORE PUSH1 0x20 ADD PUSH1 0x40 MLOAD DUP1 SWAP2 SUB SWAP1 KECCAK256 DUP1 SLOAD PUSH2 0x3E4 SWAP1 PUSH2 0xA07 JUMP JUMPDEST DUP1 PUSH1 0x1F ADD PUSH1 0x20 DUP1 SWAP2 DIV MUL PUSH1 0x20 ADD PUSH1 0x40 MLOAD SWAP1 DUP2 ADD PUSH1 0x40 MSTORE DUP1 SWAP3 SWAP2 SWAP1 DUP2 DUP2 MSTORE PUSH1 0x20 ADD DUP3 DUP1 SLOAD PUSH2 0x410 SWAP1 PUSH2 0xA07 JUMP JUMPDEST DUP1 ISZERO PUSH2 0x45D JUMPI DUP1 PUSH1 0x1F LT PUSH2 0x432 JUMPI PUSH2 0x100 DUP1 DUP4 SLOAD DIV MUL DUP4 MSTORE SWAP2 PUSH1 0x20 ADD SWAP2 PUSH2 0x45D JUMP JUMPDEST DUP3 ADD SWAP2 SWAP1 PUSH1 0x0 MSTORE PUSH1 0x20 PUSH1 0x0 KECCAK256 SWAP1 JUMPDEST DUP2 SLOAD DUP2 MSTORE SWAP1 PUSH1 0x1 ADD SWAP1 PUSH1 0x20 ADD DUP1 DUP4 GT PUSH2 0x440 JUMPI DUP3 SWAP1 SUB PUSH1 0x1F AND DUP3 ADD SWAP2 JUMPDEST POP POP POP POP POP SWAP1 POP PUSH2 0x47C JUMP JUMPDEST PUSH1 0x40 MLOAD DUP1 PUSH1 0x20 ADD PUSH1 0x40 MSTORE DUP1 PUSH1 0x0 DUP2 MSTORE POP SWAP1 POP JUMPDEST SWAP3 SWAP2 POP POP JUMP JUMPDEST PUSH1 0x0 DUP1 PUSH1 0x0 DUP5 PUSH1 0x40 MLOAD PUSH2 0x495 SWAP2 SWAP1 PUSH2 0x9C1 JUMP JUMPDEST SWAP1 DUP2 MSTORE PUSH1 0x20 ADD PUSH1 0x40 MLOAD DUP1 SWAP2 SUB SWAP1 KECCAK256 SLOAD SWAP1 POP PUSH1 0x0 DUP4 DUP1 MLOAD SWAP1 PUSH1 0x20 ADD KECCAK256 SWAP1 POP DUP1 DUP3 EQ SWAP3 POP POP POP SWAP3 SWAP2 POP POP JUMP JUMPDEST DUP3 DUP1 SLOAD PUSH2 0x4CB SWAP1 PUSH2 0xA07 JUMP JUMPDEST SWAP1 PUSH1 0x0 MSTORE PUSH1 0x20 PUSH1 0x0 KECCAK256 SWAP1 PUSH1 0x1F ADD PUSH1 0x20 SWAP1 DIV DUP2 ADD SWAP3 DUP3 PUSH2 0x4ED JUMPI PUSH1 0x0 DUP6 SSTORE PUSH2 0x534 JUMP JUMPDEST DUP3 PUSH1 0x1F LT PUSH2 0x506 JUMPI DUP1 MLOAD PUSH1 0xFF NOT AND DUP4 DUP1 ADD OR DUP6 SSTORE PUSH2 0x534 JUMP JUMPDEST DUP3 DUP1 ADD PUSH1 0x1 ADD DUP6 SSTORE DUP3 ISZERO PUSH2 0x534 JUMPI SWAP2 DUP3 ADD JUMPDEST DUP3 DUP2 GT ISZERO PUSH2 0x533 JUMPI DUP3 MLOAD DUP3 SSTORE SWAP2 PUSH1 0x20 ADD SWAP2 SWAP1 PUSH1 0x1 ADD SWAP1 PUSH2 0x518 JUMP JUMPDEST JUMPDEST POP SWAP1 POP PUSH2 0x541 SWAP2 SWAP1 PUSH2 0x545 JUMP JUMPDEST POP SWAP1 JUMP JUMPDEST JUMPDEST DUP1 DUP3 GT ISZERO PUSH2 0x55E JUMPI PUSH1 0x0 DUP2 PUSH1 0x0 SWAP1 SSTORE POP PUSH1 0x1 ADD PUSH2 0x546 JUMP JUMPDEST POP SWAP1 JUMP JUMPDEST PUSH1 0x0 PUSH1 0x40 MLOAD SWAP1 POP SWAP1 JUMP JUMPDEST PUSH1 0x0 DUP1 REVERT JUMPDEST PUSH1 0x0 DUP1 REVERT JUMPDEST PUSH1 0x0 DUP1 REVERT JUMPDEST PUSH1 0x0 DUP1 REVERT JUMPDEST PUSH1 0x0 PUSH1 0x1F NOT PUSH1 0x1F DUP4 ADD AND SWAP1 POP SWAP2 SWAP1 POP JUMP JUMPDEST PUSH32 0x4E487B7100000000000000000000000000000000000000000000000000000000 PUSH1 0x0 MSTORE PUSH1 0x41 PUSH1 0x4 MSTORE PUSH1 0x24 PUSH1 0x0 REVERT JUMPDEST PUSH2 0x5C9 DUP3 PUSH2 0x580 JUMP JUMPDEST DUP2 ADD DUP2 DUP2 LT PUSH8 0xFFFFFFFFFFFFFFFF DUP3 GT OR ISZERO PUSH2 0x5E8 JUMPI PUSH2 0x5E7 PUSH2 0x591 JUMP JUMPDEST JUMPDEST DUP1 PUSH1 0x40 MSTORE POP POP POP JUMP JUMPDEST PUSH1 0x0 PUSH2 0x5FB PUSH2 0x562 JUMP JUMPDEST SWAP1 POP PUSH2 0x607 DUP3 DUP3 PUSH2 0x5C0 JUMP JUMPDEST SWAP2 SWAP1 POP JUMP JUMPDEST PUSH1 0x0 PUSH8 0xFFFFFFFFFFFFFFFF DUP3 GT ISZERO PUSH2 0x627 JUMPI PUSH2 0x626 PUSH2 0x591 JUMP JUMPDEST JUMPDEST PUSH2 0x630 DUP3 PUSH2 0x580 JUMP JUMPDEST SWAP1 POP PUSH1 0x20 DUP2 ADD SWAP1 POP SWAP2 SWAP1 POP JUMP JUMPDEST DUP3 DUP2 DUP4 CALLDATACOPY PUSH1 0x0 DUP4 DUP4 ADD MSTORE POP POP POP JUMP JUMPDEST PUSH1 0x0 PUSH2 0x65F PUSH2 0x65A DUP5 PUSH2 0x60C JUMP JUMPDEST PUSH2 0x5F1 JUMP JUMPDEST SWAP1 POP DUP3 DUP2 MSTORE PUSH1 0x20 DUP2 ADD DUP5 DUP5 DUP5 ADD GT ISZERO PUSH2 0x67B JUMPI PUSH2 0x67A PUSH2 0x57B JUMP JUMPDEST JUMPDEST PUSH2 0x686 DUP5 DUP3 DUP6 PUSH2 0x63D JUMP JUMPDEST POP SWAP4 SWAP3 POP POP POP JUMP JUMPDEST PUSH1 0x0 DUP3 PUSH1 0x1F DUP4 ADD SLT PUSH2 0x6A3 JUMPI PUSH2 0x6A2 PUSH2 0x576 JUMP JUMPDEST JUMPDEST DUP2 CALLDATALOAD PUSH2 0x6B3 DUP5 DUP3 PUSH1 0x20 DUP7 ADD PUSH2 0x64C JUMP JUMPDEST SWAP2 POP POP SWAP3 SWAP2 POP POP JUMP JUMPDEST PUSH1 0x0 DUP1 PUSH1 0x40 DUP4 DUP6 SUB SLT ISZERO PUSH2 0x6D3 JUMPI PUSH2 0x6D2 PUSH2 0x56C JUMP JUMPDEST JUMPDEST PUSH1 0x0 DUP4 ADD CALLDATALOAD PUSH8 0xFFFFFFFFFFFFFFFF DUP2 GT ISZERO PUSH2 0x6F1 JUMPI PUSH2 0x6F0 PUSH2 0x571 JUMP JUMPDEST JUMPDEST PUSH2 0x6FD DUP6 DUP3 DUP7 ADD PUSH2 0x68E JUMP JUMPDEST SWAP3 POP POP PUSH1 0x20 DUP4 ADD CALLDATALOAD PUSH8 0xFFFFFFFFFFFFFFFF DUP2 GT ISZERO PUSH2 0x71E JUMPI PUSH2 0x71D PUSH2 0x571 JUMP JUMPDEST JUMPDEST PUSH2 0x72A DUP6 DUP3 DUP7 ADD PUSH2 0x68E JUMP JUMPDEST SWAP2 POP POP SWAP3 POP SWAP3 SWAP1 POP JUMP JUMPDEST PUSH1 0x0 PUSH20 0xFFFFFFFFFFFFFFFFFFFFFFFFFFFFFFFFFFFFFFFF DUP3 AND SWAP1 POP SWAP2 SWAP1 POP JUMP JUMPDEST PUSH1 0x0 PUSH2 0x75F DUP3 PUSH2 0x734 JUMP JUMPDEST SWAP1 POP SWAP2 SWAP1 POP JUMP JUMPDEST PUSH2 0x76F DUP2 PUSH2 0x754 JUMP JUMPDEST DUP3 MSTORE POP POP JUMP JUMPDEST PUSH1 0x0 PUSH1 0x20 DUP3 ADD SWAP1 POP PUSH2 0x78A PUSH1 0x0 DUP4 ADD DUP5 PUSH2 0x766 JUMP JUMPDEST SWAP3 SWAP2 POP POP JUMP JUMPDEST PUSH1 0x0 DUP2 SWAP1 POP SWAP2 SWAP1 POP JUMP JUMPDEST PUSH2 0x7A3 DUP2 PUSH2 0x790 JUMP JUMPDEST DUP3 MSTORE POP POP JUMP JUMPDEST PUSH1 0x0 PUSH1 0x20 DUP3 ADD SWAP1 POP PUSH2 0x7BE PUSH1 0x0 DUP4 ADD DUP5 PUSH2 0x79A JUMP JUMPDEST SWAP3 SWAP2 POP POP JUMP JUMPDEST PUSH1 0x0 DUP2 MLOAD SWAP1 POP SWAP2 SWAP1 POP JUMP JUMPDEST PUSH1 0x0 DUP3 DUP3 MSTORE PUSH1 0x20 DUP3 ADD SWAP1 POP SWAP3 SWAP2 POP POP JUMP JUMPDEST PUSH1 0x0 JUMPDEST DUP4 DUP2 LT ISZERO PUSH2 0x7FE JUMPI DUP1 DUP3 ADD MLOAD DUP2 DUP5 ADD MSTORE PUSH1 0x20 DUP2 ADD SWAP1 POP PUSH2 0x7E3 JUMP JUMPDEST DUP4 DUP2 GT ISZERO PUSH2 0x80D JUMPI PUSH1 0x0 DUP5 DUP5 ADD MSTORE JUMPDEST POP POP POP POP JUMP JUMPDEST PUSH1 0x0 PUSH2 0x81E DUP3 PUSH2 0x7C4 JUMP JUMPDEST PUSH2 0x828 DUP2 DUP6 PUSH2 0x7CF JUMP JUMPDEST SWAP4 POP PUSH2 0x838 DUP2 DUP6 PUSH1 0x20 DUP7 ADD PUSH2 0x7E0 JUMP JUMPDEST PUSH2 0x841 DUP2 PUSH2 0x580 JUMP JUMPDEST DUP5 ADD SWAP2 POP POP SWAP3 SWAP2 POP POP JUMP JUMPDEST PUSH1 0x0 PUSH1 0x20 DUP3 ADD SWAP1 POP DUP2 DUP2 SUB PUSH1 0x0 DUP4 ADD MSTORE PUSH2 0x866 DUP2 DUP5 PUSH2 0x813 JUMP JUMPDEST SWAP1 POP SWAP3 SWAP2 POP POP JUMP JUMPDEST PUSH2 0x877 DUP2 PUSH2 0x754 JUMP JUMPDEST DUP2 EQ PUSH2 0x882 JUMPI PUSH1 0x0 DUP1 REVERT JUMPDEST POP JUMP JUMPDEST PUSH1 0x0 DUP2 CALLDATALOAD SWAP1 POP PUSH2 0x894 DUP2 PUSH2 0x86E JUMP JUMPDEST SWAP3 SWAP2 POP POP JUMP JUMPDEST PUSH1 0x0 DUP1 PUSH1 0x0 DUP1 PUSH1 0x0 PUSH1 0xA0 DUP7 DUP9 SUB SLT ISZERO PUSH2 0x8B6 JUMPI PUSH2 0x8B5 PUSH2 0x56C JUMP JUMPDEST JUMPDEST PUSH1 0x0 DUP7 ADD CALLDATALOAD PUSH8 0xFFFFFFFFFFFFFFFF DUP2 GT ISZERO PUSH2 0x8D4 JUMPI PUSH2 0x8D3 PUSH2 0x571 JUMP JUMPDEST JUMPDEST PUSH2 0x8E0 DUP9 DUP3 DUP10 ADD PUSH2 0x68E JUMP JUMPDEST SWAP6 POP POP PUSH1 0x20 DUP7 ADD CALLDATALOAD PUSH8 0xFFFFFFFFFFFFFFFF DUP2 GT ISZERO PUSH2 0x901 JUMPI PUSH2 0x900 PUSH2 0x571 JUMP JUMPDEST JUMPDEST PUSH2 0x90D DUP9 DUP3 DUP10 ADD PUSH2 0x68E JUMP JUMPDEST SWAP5 POP POP PUSH1 0x40 DUP7 ADD CALLDATALOAD PUSH8 0xFFFFFFFFFFFFFFFF DUP2 GT ISZERO PUSH2 0x92E JUMPI PUSH2 0x92D PUSH2 0x571 JUMP JUMPDEST JUMPDEST PUSH2 0x93A DUP9 DUP3 DUP10 ADD PUSH2 0x68E JUMP JUMPDEST SWAP4 POP POP PUSH1 0x60 DUP7 ADD CALLDATALOAD PUSH8 0xFFFFFFFFFFFFFFFF DUP2 GT ISZERO PUSH2 0x95B JUMPI PUSH2 0x95A PUSH2 0x571 JUMP JUMPDEST JUMPDEST PUSH2 0x967 DUP9 DUP3 DUP10 ADD PUSH2 0x68E JUMP JUMPDEST SWAP3 POP POP PUSH1 0x80 PUSH2 0x978 DUP9 DUP3 DUP10 ADD PUSH2 0x885 JUMP JUMPDEST SWAP2 POP POP SWAP3 SWAP6 POP SWAP3 SWAP6 SWAP1 SWAP4 POP JUMP JUMPDEST PUSH1 0x0 DUP2 SWAP1 POP SWAP3 SWAP2 POP POP JUMP JUMPDEST PUSH1 0x0 PUSH2 0x99B DUP3 PUSH2 0x7C4 JUMP JUMPDEST PUSH2 0x9A5 DUP2 DUP6 PUSH2 0x985 JUMP JUMPDEST SWAP4 POP PUSH2 0x9B5 DUP2 DUP6 PUSH1 0x20 DUP7 ADD PUSH2 0x7E0 JUMP JUMPDEST DUP1 DUP5 ADD SWAP2 POP POP SWAP3 SWAP2 POP POP JUMP JUMPDEST PUSH1 0x0 PUSH2 0x9CD DUP3 DUP5 PUSH2 0x990 JUMP JUMPDEST SWAP2 POP DUP2 SWAP1 POP SWAP3 SWAP2 POP POP JUMP JUMPDEST PUSH32 0x4E487B7100000000000000000000000000000000000000000000000000000000 PUSH1 0x0 MSTORE PUSH1 0x22 PUSH1 0x4 MSTORE PUSH1 0x24 PUSH1 0x0 REVERT JUMPDEST PUSH1 0x0 PUSH1 0x2 DUP3 DIV SWAP1 POP PUSH1 0x1 DUP3 AND DUP1 PUSH2 0xA1F JUMPI PUSH1 0x7F DUP3 AND SWAP2 POP JUMPDEST PUSH1 0x20 DUP3 LT DUP2 EQ ISZERO PUSH2 0xA33 JUMPI PUSH2 0xA32 PUSH2 0x9D8 JUMP JUMPDEST JUMPDEST POP SWAP2 SWAP1 POP JUMP INVALID LOG2 PUSH5 0x6970667358 0x22 SLT KECCAK256 0xF7 0xE9 BLOCKHASH PUSH8 0x6F783513E145755E BALANCE 0x4D 0xC5 0xC3 0xF 0xCD COINBASE 0x5D SHR PUSH23 0x72BBB994DC6A49E1178B64736F6C634300080A00330000 "
    }
  }
}